{"contracts/BookRental.sol":{"BookRental":{"abi":[{"inputs":[],"stateMutability":"nonpayable","type":"constructor"},{"inputs":[],"name":"BookRental__AlreadyRegistered","type":"error"},{"inputs":[],"name":"BookRental__CannotRentOwnItem","type":"error"},{"inputs":[],"name":"BookRental__DepositTooLow","type":"error"},{"inputs":[],"name":"BookRental__IPFSCIDRequired","type":"error"},{"inputs":[],"name":"BookRental__InsufficientPayment","type":"error"},{"inputs":[],"name":"BookRental__InvalidPrice","type":"error"},{"inputs":[],"name":"BookRental__InvalidStatus","type":"error"},{"inputs":[],"name":"BookRental__MaxRentalsReached","type":"error"},{"inputs":[],"name":"BookRental__NoEligibleArbitrators","type":"error"},{"inputs":[],"name":"BookRental__NotArbitrator","type":"error"},{"inputs":[],"name":"BookRental__NotItemOwner","type":"error"},{"inputs":[],"name":"BookRental__NotRegistered","type":"error"},{"inputs":[],"name":"BookRental__NotRenter","type":"error"},{"inputs":[],"name":"BookRental__TermsNotAccepted","type":"error"},{"inputs":[],"name":"BookRental__Unauthorized","type":"error"},{"inputs":[{"internalType":"address","name":"owner","type":"address"}],"name":"OwnableInvalidOwner","type":"error"},{"inputs":[{"internalType":"address","name":"account","type":"address"}],"name":"OwnableUnauthorizedAccount","type":"error"},{"inputs":[],"name":"ReentrancyGuardReentrantCall","type":"error"},{"anonymous":false,"inputs":[{"indexed":true,"internalType":"address","name":"arbitrator","type":"address"}],"name":"ArbitratorRegistered","type":"event"},{"anonymous":false,"inputs":[{"indexed":true,"internalType":"address","name":"arbitrator","type":"address"}],"name":"ArbitratorRemoved","type":"event"},{"anonymous":false,"inputs":[{"indexed":true,"internalType":"uint256","name":"itemId","type":"uint256"},{"indexed":true,"internalType":"address","name":"raisedBy","type":"address"},{"indexed":true,"internalType":"address","name":"chosenArbitrator","type":"address"}],"name":"DisputeRaised","type":"event"},{"anonymous":false,"inputs":[{"indexed":true,"internalType":"uint256","name":"itemId","type":"uint256"},{"indexed":true,"internalType":"address","name":"winner","type":"address"}],"name":"DisputeResolved","type":"event"},{"anonymous":false,"inputs":[{"indexed":true,"internalType":"uint256","name":"itemId","type":"uint256"},{"indexed":true,"internalType":"address","name":"owner","type":"address"},{"indexed":false,"internalType":"string","name":"ipfsCID","type":"string"}],"name":"ItemListed","type":"event"},{"anonymous":false,"inputs":[{"indexed":true,"internalType":"uint256","name":"itemId","type":"uint256"},{"indexed":true,"internalType":"address","name":"renter","type":"address"}],"name":"ItemRented","type":"event"},{"anonymous":false,"inputs":[{"indexed":true,"internalType":"uint256","name":"itemId","type":"uint256"},{"indexed":true,"internalType":"address","name":"renter","type":"address"}],"name":"ItemReturned","type":"event"},{"anonymous":false,"inputs":[{"indexed":true,"internalType":"address","name":"previousOwner","type":"address"},{"indexed":true,"internalType":"address","name":"newOwner","type":"address"}],"name":"OwnershipTransferred","type":"event"},{"anonymous":false,"inputs":[{"indexed":true,"internalType":"uint256","name":"itemId","type":"uint256"},{"indexed":false,"internalType":"uint256","name":"refundAmount","type":"uint256"}],"name":"ReturnConfirmed","type":"event"},{"inputs":[],"name":"MAX_ACTIVE_RENTALS","outputs":[{"internalType":"uint256","name":"","type":"uint256"}],"stateMutability":"view","type":"function"},{"inputs":[],"name":"STANDARD_RENTAL_PERIOD","outputs":[{"internalType":"uint256","name":"","type":"uint256"}],"stateMutability":"view","type":"function"},{"inputs":[{"internalType":"address","name":"","type":"address"}],"name":"activeRentals","outputs":[{"internalType":"uint256","name":"","type":"uint256"}],"stateMutability":"view","type":"function"},{"inputs":[{"internalType":"uint256","name":"","type":"uint256"}],"name":"arbitratorPool","outputs":[{"internalType":"address","name":"","type":"address"}],"stateMutability":"view","type":"function"},{"inputs":[{"internalType":"uint256","name":"","type":"uint256"}],"name":"assignedArbitrator","outputs":[{"internalType":"address","name":"","type":"address"}],"stateMutability":"view","type":"function"},{"inputs":[{"internalType":"uint256","name":"_itemId","type":"uint256"}],"name":"confirmReturn","outputs":[],"stateMutability":"nonpayable","type":"function"},{"inputs":[],"name":"getArbitratorCount","outputs":[{"internalType":"uint256","name":"","type":"uint256"}],"stateMutability":"view","type":"function"},{"inputs":[],"name":"getArbitratorPool","outputs":[{"internalType":"address[]","name":"","type":"address[]"}],"stateMutability":"view","type":"function"},{"inputs":[{"internalType":"uint256","name":"_itemId","type":"uint256"}],"name":"getItem","outputs":[{"components":[{"internalType":"uint256","name":"itemId","type":"uint256"},{"internalType":"address payable","name":"owner","type":"address"},{"internalType":"address payable","name":"renter","type":"address"},{"internalType":"uint256","name":"pricePerDay","type":"uint256"},{"internalType":"uint256","name":"depositAmount","type":"uint256"},{"internalType":"string","name":"ipfsCID","type":"string"},{"internalType":"enum BookRental.Status","name":"status","type":"uint8"},{"internalType":"uint256","name":"rentedAt","type":"uint256"},{"internalType":"uint256","name":"returnedAt","type":"uint256"},{"internalType":"uint256","name":"disputeRaisedAt","type":"uint256"}],"internalType":"struct BookRental.Item","name":"","type":"tuple"}],"stateMutability":"view","type":"function"},{"inputs":[{"internalType":"address","name":"","type":"address"}],"name":"isArbitrator","outputs":[{"internalType":"bool","name":"","type":"bool"}],"stateMutability":"view","type":"function"},{"inputs":[],"name":"itemCounter","outputs":[{"internalType":"uint256","name":"","type":"uint256"}],"stateMutability":"view","type":"function"},{"inputs":[{"internalType":"uint256","name":"","type":"uint256"}],"name":"items","outputs":[{"internalType":"uint256","name":"itemId","type":"uint256"},{"internalType":"address payable","name":"owner","type":"address"},{"internalType":"address payable","name":"renter","type":"address"},{"internalType":"uint256","name":"pricePerDay","type":"uint256"},{"internalType":"uint256","name":"depositAmount","type":"uint256"},{"internalType":"string","name":"ipfsCID","type":"string"},{"internalType":"enum BookRental.Status","name":"status","type":"uint8"},{"internalType":"uint256","name":"rentedAt","type":"uint256"},{"internalType":"uint256","name":"returnedAt","type":"uint256"},{"internalType":"uint256","name":"disputeRaisedAt","type":"uint256"}],"stateMutability":"view","type":"function"},{"inputs":[{"internalType":"string","name":"_ipfsCID","type":"string"},{"internalType":"uint256","name":"_pricePerDay","type":"uint256"},{"internalType":"uint256","name":"_depositAmount","type":"uint256"}],"name":"listItem","outputs":[{"internalType":"uint256","name":"","type":"uint256"}],"stateMutability":"nonpayable","type":"function"},{"inputs":[],"name":"owner","outputs":[{"internalType":"address","name":"","type":"address"}],"stateMutability":"view","type":"function"},{"inputs":[{"internalType":"uint256","name":"_itemId","type":"uint256"}],"name":"raiseDispute","outputs":[],"stateMutability":"nonpayable","type":"function"},{"inputs":[],"name":"registerAsArbitrator","outputs":[],"stateMutability":"nonpayable","type":"function"},{"inputs":[],"name":"renounceOwnership","outputs":[],"stateMutability":"nonpayable","type":"function"},{"inputs":[{"internalType":"uint256","name":"_itemId","type":"uint256"},{"internalType":"bool","name":"_acceptedTerms","type":"bool"}],"name":"rentItem","outputs":[],"stateMutability":"payable","type":"function"},{"inputs":[{"internalType":"uint256","name":"_itemId","type":"uint256"},{"internalType":"address payable","name":"_winner","type":"address"}],"name":"resolveDispute","outputs":[],"stateMutability":"nonpayable","type":"function"},{"inputs":[{"internalType":"uint256","name":"_itemId","type":"uint256"}],"name":"returnItem","outputs":[],"stateMutability":"nonpayable","type":"function"},{"inputs":[{"internalType":"address","name":"newOwner","type":"address"}],"name":"transferOwnership","outputs":[],"stateMutability":"nonpayable","type":"function"},{"inputs":[],"name":"unregisterAsArbitrator","outputs":[],"stateMutability":"nonpayable","type":"function"}],"evm":{"bytecode":{"linkReferences":{},"object":"608060405234801561001057600080fd5b5060017f9b779b17422d0df92223018b32b4d1fa46e071723d6817e2486d003becc55f0055338061005b57604051631e4fbdf760e01b81526000600482015260240160405180910390fd5b610064816100c6565b50336000818152600560205260408120805460ff191660019081179091556004805491820181559091527f8a35acfbc15ff81a39ae7d344fd709f28e8600b4aa8c65c6b64bfe7fe36bd19b0180546001600160a01b0319169091179055610116565b600080546001600160a01b038381166001600160a01b0319831681178455604051919092169283917f8be0079c531659141344cd1fd0a4f28419497f9722a3daafe3b4186f6b6457e09190a35050565b611bfa806101256000396000f3fe6080604052600436106101355760003560e01c80638da5cb5b116100ab578063de2ad1ce1161006f578063de2ad1ce1461037b578063e86c245714610390578063ebc8c500146103b0578063f1766279146103c5578063f2fde38b146103e5578063f578470c1461040557600080fd5b80638da5cb5b146102b25780639f6bd2a9146102d0578063a1e4f4bc14610310578063a5c1674e14610325578063bfb231d21461034557600080fd5b80633fbb277c116100fd5780633fbb277c146101ed57806364a40f801461020f5780636d6d00ed14610226578063715018a61461023c5780637fe2372c1461025157806382520ee81461029f57600080fd5b80630e33599d1461013a5780631923c96f1461015c578063223ed1dd146101805780632e5df6e3146101a05780633129e773146101c0575b600080fd5b34801561014657600080fd5b5061015a6101553660046115f4565b610432565b005b34801561016857600080fd5b506004545b6040519081526020015b60405180910390f35b34801561018c57600080fd5b5061015a61019b366004611624565b6105bd565b3480156101ac57600080fd5b5061015a6101bb366004611624565b610677565b3480156101cc57600080fd5b506101e06101db366004611624565b610977565b60405161017791906116bb565b3480156101f957600080fd5b50610202610b15565b604051610177919061176a565b34801561021b57600080fd5b5061016d62093a8081565b34801561023257600080fd5b5061016d60015481565b34801561024857600080fd5b5061015a610b77565b34801561025d57600080fd5b5061028761026c366004611624565b6006602052600090815260409020546001600160a01b031681565b6040516001600160a01b039091168152602001610177565b61015a6102ad3660046117b7565b610b8b565b3480156102be57600080fd5b506000546001600160a01b0316610287565b3480156102dc57600080fd5b506103006102eb3660046117e1565b60056020526000908152604090205460ff1681565b6040519015158152602001610177565b34801561031c57600080fd5b5061015a610d2e565b34801561033157600080fd5b5061015a610340366004611624565b610e9f565b34801561035157600080fd5b50610365610360366004611624565b610fc8565b6040516101779a99989796959493929190611805565b34801561038757600080fd5b5061016d600581565b34801561039c57600080fd5b506102876103ab366004611624565b6110b2565b3480156103bc57600080fd5b5061015a6110dc565b3480156103d157600080fd5b5061016d6103e036600461188f565b61118f565b3480156103f157600080fd5b5061015a6104003660046117e1565b611341565b34801561041157600080fd5b5061016d6104203660046117e1565b60036020526000908152604090205481565b61043a611381565b6000828152600660205260409020546001600160a01b03163314610471576040516307d512d560e41b815260040160405180910390fd5b60008281526002602052604090206003600682015460ff16600481111561049a5761049a611683565b146104b8576040516337a2c47760e21b815260040160405180910390fd5b6000816003015482600401546104ce9190611969565b60028301546001600160a01b031660009081526003602052604081208054929350916104f990611982565b909155506006828101805460ff191690556002830180546001600160a01b0319908116909155600086815260209290925260408083208054909216909155516001600160a01b038516916108fc841502918491818181858888f19350505050158015610569573d6000803e3d6000fd5b506040516001600160a01b0384169085907ff77ceb5e091d2da041bc760667f9d5fe7a756949eaf29250ad0e60ca6f4c27d990600090a350506105b96001600080516020611ba583398151915255565b5050565b60008181526002602052604090206001600682015460ff1660048111156105e6576105e6611683565b14610604576040516337a2c47760e21b815260040160405180910390fd5b60028101546001600160a01b03163314610631576040516359b703af60e01b815260040160405180910390fd5b60068101805460ff19166002179055426008820155604051339083907fc3193e818cdb299f699a8ae99c460279d0de3b72ce9331e279a52515bb5aca9f90600090a35050565b61067f611381565b600081815260026020819052604090912090600682015460ff1660048111156106aa576106aa611683565b146106c8576040516337a2c47760e21b815260040160405180910390fd5b60018101546001600160a01b031633148015906106f5575060088101546106f2906202a300611969565b42105b15610713576040516363c9d95b60e01b815260040160405180910390fd5b6000816007015482600801546107299190611999565b9050600061073a62015180836119c2565b9050600061074b62015180846119d6565b111561075f578061075b816119ea565b9150505b8060000361076b575060015b6000600782111561077d57600761077f565b815b905060006007831161079257600061079d565b61079d600784611999565b905060008560030154826107b19190611a03565b6107bc906002611a03565b60038701546107cb9085611a03565b6107d59190611969565b90506000866003015482116107eb5760006107fa565b60038701546107fa9083611999565b9050600080886004015483106108295760009150886003015489600401546108229190611969565b905061084e565b8289600401546108399190611999565b915082896003015461084b9190611969565b90505b60068901805460ff191690556002890180546001600160a01b031981169091556001600160a01b03166000818152600360205260408120805490919061089390611982565b9091555081156108db5760018a01546040516001600160a01b039091169083156108fc029084906000818181858888f193505050501580156108d9573d6000803e3d6000fd5b505b8215610919576040516001600160a01b0382169084156108fc029085906000818181858888f19350505050158015610917573d6000803e3d6000fd5b505b8a7fb2c4110a20d27fd2a835295123d67e5f9434fe1cb3c3133245b909ea88a80c9d8460405161094b91815260200190565b60405180910390a2505050505050505050506109746001600080516020611ba583398151915255565b50565b6109cc604080516101408101825260008082526020820181905291810182905260608082018390526080820183905260a08201529060c082019081526020016000815260200160008152602001600081525090565b6000828152600260208181526040928390208351610140810185528154815260018201546001600160a01b03908116938201939093529281015490911692820192909252600382015460608201526004820154608082015260058201805491929160a084019190610a3c90611a1a565b80601f0160208091040260200160405190810160405280929190818152602001828054610a6890611a1a565b8015610ab55780601f10610a8a57610100808354040283529160200191610ab5565b820191906000526020600020905b815481529060010190602001808311610a9857829003601f168201915b5050509183525050600682015460209091019060ff166004811115610adc57610adc611683565b6004811115610aed57610aed611683565b8152600782015460208201526008820154604082015260099091015460609091015292915050565b60606004805480602002602001604051908101604052809291908181526020018280548015610b6d57602002820191906000526020600020905b81546001600160a01b03168152600190910190602001808311610b4f575b5050505050905090565b610b7f61139d565b610b8960006113ca565b565b610b93611381565b80610bb15760405163021be20960e41b815260040160405180910390fd5b600082815260026020526040812090600682015460ff166004811115610bd957610bd9611683565b14610bf7576040516337a2c47760e21b815260040160405180910390fd5b60018101546001600160a01b03163303610c2457604051633205115960e21b815260040160405180910390fd5b33600090815260036020526040902054600511610c545760405163699920ab60e11b815260040160405180910390fd5b600081600301548260040154610c6a9190611969565b905080341015610c8d57604051637589333160e11b815260040160405180910390fd5b60068201805460ff19166001179055600282018054336001600160a01b03199091168117909155426007840155600060088401819055600984018190559081526003602052604081208054909190610ce4906119ea565b90915550604051339085907f60a8ad5021d41afc35cad1dcad49a375a37f3d9c05c95bdf82d653ae99869a0c90600090a350506105b96001600080516020611ba583398151915255565b3360009081526005602052604090205460ff16610d5e5760405163054a697960e01b815260040160405180910390fd5b336000908152600560205260408120805460ff191690555b600454811015610e7157336001600160a01b031660048281548110610d9d57610d9d611a54565b6000918252602090912001546001600160a01b031603610e695760048054610dc790600190611999565b81548110610dd757610dd7611a54565b600091825260209091200154600480546001600160a01b039092169183908110610e0357610e03611a54565b9060005260206000200160006101000a8154816001600160a01b0302191690836001600160a01b031602179055506004805480610e4257610e42611a6a565b600082815260209020810160001990810180546001600160a01b0319169055019055610e71565b600101610d76565b5060405133907f715484adb5bc9cc29af577725dbf8486d0b82eca3ba79f65846e92ff38ef32b590600090a2565b600081815260026020819052604090912090600682015460ff166004811115610eca57610eca611683565b14610ee8576040516337a2c47760e21b815260040160405180910390fd5b60028101546001600160a01b03163314801590610f12575060018101546001600160a01b03163314155b15610f3057604051636e14c4dd60e11b815260040160405180910390fd5b60018101546002820154600091610f54916001600160a01b0391821691168561141a565b600084815260066020819052604080832080546001600160a01b0386166001600160a01b03199091168117909155918601805460ff191660031790554260098701555192935091339186917f32c3577ad32544a8c06c1b330ada404f03a4d405574e524dd6d86eeba5f21e739190a4505050565b600260208190526000918252604090912080546001820154928201546003830154600484015460058501805494966001600160a01b03908116969416949293919261101290611a1a565b80601f016020809104026020016040519081016040528092919081815260200182805461103e90611a1a565b801561108b5780601f106110605761010080835404028352916020019161108b565b820191906000526020600020905b81548152906001019060200180831161106e57829003601f168201915b50505050600683015460078401546008850154600990950154939460ff909216939092508a565b600481815481106110c257600080fd5b6000918252602090912001546001600160a01b0316905081565b3360009081526005602052604090205460ff161561110d57604051630e1e689f60e11b815260040160405180910390fd5b33600081815260056020526040808220805460ff1916600190811790915560048054918201815583527f8a35acfbc15ff81a39ae7d344fd709f28e8600b4aa8c65c6b64bfe7fe36bd19b0180546001600160a01b03191684179055517fc80bad7f86a895f590d6beaa663ccf7f0de84f1fd2a042b944433700879d61229190a2565b600083516000036111b357604051631a2da5df60e21b815260040160405180910390fd5b828210156111d4576040516307ae42cd60e41b815260040160405180910390fd5b6001600081546111e3906119ea565b909155506040805161014081018252600180548083523360208085019182526000858701818152606087018b8152608088018b815260a089018e815260c08a0185905260e08a018590526101008a018590526101208a018590529684526002948590529890922087518155935195840180546001600160a01b039788166001600160a01b03199182161790915590519284018054939096169216919091179093559151600383015592516004820155915190919060058201906112a69082611ad1565b5060c082015160068201805460ff191660018360048111156112ca576112ca611683565b021790555060e0820151816007015561010082015181600801556101208201518160090155905050336001600160a01b03166001547fe1c2078c29a65ada61730619230273d978ed51ccefc8b1f794ca5ef19d75b99b8660405161132e9190611b91565b60405180910390a3506001549392505050565b61134961139d565b6001600160a01b03811661137857604051631e4fbdf760e01b8152600060048201526024015b60405180910390fd5b610974816113ca565b6113896115af565b6002600080516020611ba583398151915255565b6000546001600160a01b03163314610b895760405163118cdaa760e01b815233600482015260240161136f565b600080546001600160a01b038381166001600160a01b0319831681178455604051919092169283917f8be0079c531659141344cd1fd0a4f28419497f9722a3daafe3b4186f6b6457e09190a35050565b600454600090818167ffffffffffffffff81111561143a5761143a611879565b604051908082528060200260200182016040528015611463578160200160208202803683370190505b5090506000805b838110156115085760006004828154811061148757611487611a54565b6000918252602090912001546001600160a01b039081169150891681148015906114c35750876001600160a01b0316816001600160a01b031614155b156114ff57808484815181106114db576114db611a54565b6001600160a01b03909216602092830291909101909101526114fc836119ea565b92505b5060010161146a565b508060000361152a57604051633e98ef2360e01b815260040160405180910390fd5b604080514460208201524291810191909152606080820187905233901b6bffffffffffffffffffffffff1916608082015260009082906094016040516020818303038152906040528051906020012060001c61158691906119d6565b905082818151811061159a5761159a611a54565b60200260200101519450505050509392505050565b600080516020611ba583398151915254600203610b8957604051633ee5aeb560e01b815260040160405180910390fd5b6001600160a01b038116811461097457600080fd5b6000806040838503121561160757600080fd5b823591506020830135611619816115df565b809150509250929050565b60006020828403121561163657600080fd5b5035919050565b6000815180845260005b8181101561166357602081850181015186830182015201611647565b506000602082860101526020601f19601f83011685010191505092915050565b634e487b7160e01b600052602160045260246000fd5b600581106116b757634e487b7160e01b600052602160045260246000fd5b9052565b6020815281516020820152600060208301516116e260408401826001600160a01b03169052565b5060408301516001600160a01b03811660608401525060608301516080830152608083015160a083015260a08301516101408060c085015261172861016085018361163d565b915060c085015161173c60e0860182611699565b5060e08501516101008581019190915285015161012080860191909152909401519390920192909252919050565b6020808252825182820181905260009190848201906040850190845b818110156117ab5783516001600160a01b031683529284019291840191600101611786565b50909695505050505050565b600080604083850312156117ca57600080fd5b823591506020830135801515811461161957600080fd5b6000602082840312156117f357600080fd5b81356117fe816115df565b9392505050565b8a81526001600160a01b038a8116602083015289166040820152606081018890526080810187905261014060a082018190526000906118468382018961163d565b91505061185660c0830187611699565b8460e083015283610100830152826101208301529b9a5050505050505050505050565b634e487b7160e01b600052604160045260246000fd5b6000806000606084860312156118a457600080fd5b833567ffffffffffffffff808211156118bc57600080fd5b818601915086601f8301126118d057600080fd5b8135818111156118e2576118e2611879565b604051601f8201601f19908116603f0116810190838211818310171561190a5761190a611879565b8160405282815289602084870101111561192357600080fd5b82602086016020830137600060208483010152809750505050505060208401359150604084013590509250925092565b634e487b7160e01b600052601160045260246000fd5b8082018082111561197c5761197c611953565b92915050565b60008161199157611991611953565b506000190190565b8181038181111561197c5761197c611953565b634e487b7160e01b600052601260045260246000fd5b6000826119d1576119d16119ac565b500490565b6000826119e5576119e56119ac565b500690565b6000600182016119fc576119fc611953565b5060010190565b808202811582820484141761197c5761197c611953565b600181811c90821680611a2e57607f821691505b602082108103611a4e57634e487b7160e01b600052602260045260246000fd5b50919050565b634e487b7160e01b600052603260045260246000fd5b634e487b7160e01b600052603160045260246000fd5b601f821115611acc576000816000526020600020601f850160051c81016020861015611aa95750805b601f850160051c820191505b81811015611ac857828155600101611ab5565b5050505b505050565b815167ffffffffffffffff811115611aeb57611aeb611879565b611aff81611af98454611a1a565b84611a80565b602080601f831160018114611b345760008415611b1c5750858301515b600019600386901b1c1916600185901b178555611ac8565b600085815260208120601f198616915b82811015611b6357888601518255948401946001909101908401611b44565b5085821015611b815787850151600019600388901b60f8161c191681555b5050505050600190811b01905550565b6020815260006117fe602083018461163d56fe9b779b17422d0df92223018b32b4d1fa46e071723d6817e2486d003becc55f00a264697066735822122033be1cd626176f474ddb4a0d7e03b86c42d18f18f69d3d8a9779c43dd688b95764736f6c63430008180033","opcodes":"PUSH1 0x80 PUSH1 0x40 MSTORE CALLVALUE DUP1 ISZERO PUSH2 0x10 JUMPI PUSH1 0x0 DUP1 REVERT JUMPDEST POP PUSH1 0x1 PUSH32 0x9B779B17422D0DF92223018B32B4D1FA46E071723D6817E2486D003BECC55F00 SSTORE CALLER DUP1 PUSH2 0x5B JUMPI PUSH1 0x40 MLOAD PUSH4 0x1E4FBDF7 PUSH1 0xE0 SHL DUP2 MSTORE PUSH1 0x0 PUSH1 0x4 DUP3 ADD MSTORE PUSH1 0x24 ADD PUSH1 0x40 MLOAD DUP1 SWAP2 SUB SWAP1 REVERT JUMPDEST PUSH2 0x64 DUP2 PUSH2 0xC6 JUMP JUMPDEST POP CALLER PUSH1 0x0 DUP2 DUP2 MSTORE PUSH1 0x5 PUSH1 0x20 MSTORE PUSH1 0x40 DUP2 KECCAK256 DUP1 SLOAD PUSH1 0xFF NOT AND PUSH1 0x1 SWAP1 DUP2 OR SWAP1 SWAP2 SSTORE PUSH1 0x4 DUP1 SLOAD SWAP2 DUP3 ADD DUP2 SSTORE SWAP1 SWAP2 MSTORE PUSH32 0x8A35ACFBC15FF81A39AE7D344FD709F28E8600B4AA8C65C6B64BFE7FE36BD19B ADD DUP1 SLOAD PUSH1 0x1 PUSH1 0x1 PUSH1 0xA0 SHL SUB NOT AND SWAP1 SWAP2 OR SWAP1 SSTORE PUSH2 0x116 JUMP JUMPDEST PUSH1 0x0 DUP1 SLOAD PUSH1 0x1 PUSH1 0x1 PUSH1 0xA0 SHL SUB DUP4 DUP2 AND PUSH1 0x1 PUSH1 0x1 PUSH1 0xA0 SHL SUB NOT DUP4 AND DUP2 OR DUP5 SSTORE PUSH1 0x40 MLOAD SWAP2 SWAP1 SWAP3 AND SWAP3 DUP4 SWAP2 PUSH32 0x8BE0079C531659141344CD1FD0A4F28419497F9722A3DAAFE3B4186F6B6457E0 SWAP2 SWAP1 LOG3 POP POP JUMP JUMPDEST PUSH2 0x1BFA DUP1 PUSH2 0x125 PUSH1 0x0 CODECOPY PUSH1 0x0 RETURN INVALID PUSH1 0x80 PUSH1 0x40 MSTORE PUSH1 0x4 CALLDATASIZE LT PUSH2 0x135 JUMPI PUSH1 0x0 CALLDATALOAD PUSH1 0xE0 SHR DUP1 PUSH4 0x8DA5CB5B GT PUSH2 0xAB JUMPI DUP1 PUSH4 0xDE2AD1CE GT PUSH2 0x6F JUMPI DUP1 PUSH4 0xDE2AD1CE EQ PUSH2 0x37B JUMPI DUP1 PUSH4 0xE86C2457 EQ PUSH2 0x390 JUMPI DUP1 PUSH4 0xEBC8C500 EQ PUSH2 0x3B0 JUMPI DUP1 PUSH4 0xF1766279 EQ PUSH2 0x3C5 JUMPI DUP1 PUSH4 0xF2FDE38B EQ PUSH2 0x3E5 JUMPI DUP1 PUSH4 0xF578470C EQ PUSH2 0x405 JUMPI PUSH1 0x0 DUP1 REVERT JUMPDEST DUP1 PUSH4 0x8DA5CB5B EQ PUSH2 0x2B2 JUMPI DUP1 PUSH4 0x9F6BD2A9 EQ PUSH2 0x2D0 JUMPI DUP1 PUSH4 0xA1E4F4BC EQ PUSH2 0x310 JUMPI DUP1 PUSH4 0xA5C1674E EQ PUSH2 0x325 JUMPI DUP1 PUSH4 0xBFB231D2 EQ PUSH2 0x345 JUMPI PUSH1 0x0 DUP1 REVERT JUMPDEST DUP1 PUSH4 0x3FBB277C GT PUSH2 0xFD JUMPI DUP1 PUSH4 0x3FBB277C EQ PUSH2 0x1ED JUMPI DUP1 PUSH4 0x64A40F80 EQ PUSH2 0x20F JUMPI DUP1 PUSH4 0x6D6D00ED EQ PUSH2 0x226 JUMPI DUP1 PUSH4 0x715018A6 EQ PUSH2 0x23C JUMPI DUP1 PUSH4 0x7FE2372C EQ PUSH2 0x251 JUMPI DUP1 PUSH4 0x82520EE8 EQ PUSH2 0x29F JUMPI PUSH1 0x0 DUP1 REVERT JUMPDEST DUP1 PUSH4 0xE33599D EQ PUSH2 0x13A JUMPI DUP1 PUSH4 0x1923C96F EQ PUSH2 0x15C JUMPI DUP1 PUSH4 0x223ED1DD EQ PUSH2 0x180 JUMPI DUP1 PUSH4 0x2E5DF6E3 EQ PUSH2 0x1A0 JUMPI DUP1 PUSH4 0x3129E773 EQ PUSH2 0x1C0 JUMPI JUMPDEST PUSH1 0x0 DUP1 REVERT JUMPDEST CALLVALUE DUP1 ISZERO PUSH2 0x146 JUMPI PUSH1 0x0 DUP1 REVERT JUMPDEST POP PUSH2 0x15A PUSH2 0x155 CALLDATASIZE PUSH1 0x4 PUSH2 0x15F4 JUMP JUMPDEST PUSH2 0x432 JUMP JUMPDEST STOP JUMPDEST CALLVALUE DUP1 ISZERO PUSH2 0x168 JUMPI PUSH1 0x0 DUP1 REVERT JUMPDEST POP PUSH1 0x4 SLOAD JUMPDEST PUSH1 0x40 MLOAD SWAP1 DUP2 MSTORE PUSH1 0x20 ADD JUMPDEST PUSH1 0x40 MLOAD DUP1 SWAP2 SUB SWAP1 RETURN JUMPDEST CALLVALUE DUP1 ISZERO PUSH2 0x18C JUMPI PUSH1 0x0 DUP1 REVERT JUMPDEST POP PUSH2 0x15A PUSH2 0x19B CALLDATASIZE PUSH1 0x4 PUSH2 0x1624 JUMP JUMPDEST PUSH2 0x5BD JUMP JUMPDEST CALLVALUE DUP1 ISZERO PUSH2 0x1AC JUMPI PUSH1 0x0 DUP1 REVERT JUMPDEST POP PUSH2 0x15A PUSH2 0x1BB CALLDATASIZE PUSH1 0x4 PUSH2 0x1624 JUMP JUMPDEST PUSH2 0x677 JUMP JUMPDEST CALLVALUE DUP1 ISZERO PUSH2 0x1CC JUMPI PUSH1 0x0 DUP1 REVERT JUMPDEST POP PUSH2 0x1E0 PUSH2 0x1DB CALLDATASIZE PUSH1 0x4 PUSH2 0x1624 JUMP JUMPDEST PUSH2 0x977 JUMP JUMPDEST PUSH1 0x40 MLOAD PUSH2 0x177 SWAP2 SWAP1 PUSH2 0x16BB JUMP JUMPDEST CALLVALUE DUP1 ISZERO PUSH2 0x1F9 JUMPI PUSH1 0x0 DUP1 REVERT JUMPDEST POP PUSH2 0x202 PUSH2 0xB15 JUMP JUMPDEST PUSH1 0x40 MLOAD PUSH2 0x177 SWAP2 SWAP1 PUSH2 0x176A JUMP JUMPDEST CALLVALUE DUP1 ISZERO PUSH2 0x21B JUMPI PUSH1 0x0 DUP1 REVERT JUMPDEST POP PUSH2 0x16D PUSH3 0x93A80 DUP2 JUMP JUMPDEST CALLVALUE DUP1 ISZERO PUSH2 0x232 JUMPI PUSH1 0x0 DUP1 REVERT JUMPDEST POP PUSH2 0x16D PUSH1 0x1 SLOAD DUP2 JUMP JUMPDEST CALLVALUE DUP1 ISZERO PUSH2 0x248 JUMPI PUSH1 0x0 DUP1 REVERT JUMPDEST POP PUSH2 0x15A PUSH2 0xB77 JUMP JUMPDEST CALLVALUE DUP1 ISZERO PUSH2 0x25D JUMPI PUSH1 0x0 DUP1 REVERT JUMPDEST POP PUSH2 0x287 PUSH2 0x26C CALLDATASIZE PUSH1 0x4 PUSH2 0x1624 JUMP JUMPDEST PUSH1 0x6 PUSH1 0x20 MSTORE PUSH1 0x0 SWAP1 DUP2 MSTORE PUSH1 0x40 SWAP1 KECCAK256 SLOAD PUSH1 0x1 PUSH1 0x1 PUSH1 0xA0 SHL SUB AND DUP2 JUMP JUMPDEST PUSH1 0x40 MLOAD PUSH1 0x1 PUSH1 0x1 PUSH1 0xA0 SHL SUB SWAP1 SWAP2 AND DUP2 MSTORE PUSH1 0x20 ADD PUSH2 0x177 JUMP JUMPDEST PUSH2 0x15A PUSH2 0x2AD CALLDATASIZE PUSH1 0x4 PUSH2 0x17B7 JUMP JUMPDEST PUSH2 0xB8B JUMP JUMPDEST CALLVALUE DUP1 ISZERO PUSH2 0x2BE JUMPI PUSH1 0x0 DUP1 REVERT JUMPDEST POP PUSH1 0x0 SLOAD PUSH1 0x1 PUSH1 0x1 PUSH1 0xA0 SHL SUB AND PUSH2 0x287 JUMP JUMPDEST CALLVALUE DUP1 ISZERO PUSH2 0x2DC JUMPI PUSH1 0x0 DUP1 REVERT JUMPDEST POP PUSH2 0x300 PUSH2 0x2EB CALLDATASIZE PUSH1 0x4 PUSH2 0x17E1 JUMP JUMPDEST PUSH1 0x5 PUSH1 0x20 MSTORE PUSH1 0x0 SWAP1 DUP2 MSTORE PUSH1 0x40 SWAP1 KECCAK256 SLOAD PUSH1 0xFF AND DUP2 JUMP JUMPDEST PUSH1 0x40 MLOAD SWAP1 ISZERO ISZERO DUP2 MSTORE PUSH1 0x20 ADD PUSH2 0x177 JUMP JUMPDEST CALLVALUE DUP1 ISZERO PUSH2 0x31C JUMPI PUSH1 0x0 DUP1 REVERT JUMPDEST POP PUSH2 0x15A PUSH2 0xD2E JUMP JUMPDEST CALLVALUE DUP1 ISZERO PUSH2 0x331 JUMPI PUSH1 0x0 DUP1 REVERT JUMPDEST POP PUSH2 0x15A PUSH2 0x340 CALLDATASIZE PUSH1 0x4 PUSH2 0x1624 JUMP JUMPDEST PUSH2 0xE9F JUMP JUMPDEST CALLVALUE DUP1 ISZERO PUSH2 0x351 JUMPI PUSH1 0x0 DUP1 REVERT JUMPDEST POP PUSH2 0x365 PUSH2 0x360 CALLDATASIZE PUSH1 0x4 PUSH2 0x1624 JUMP JUMPDEST PUSH2 0xFC8 JUMP JUMPDEST PUSH1 0x40 MLOAD PUSH2 0x177 SWAP11 SWAP10 SWAP9 SWAP8 SWAP7 SWAP6 SWAP5 SWAP4 SWAP3 SWAP2 SWAP1 PUSH2 0x1805 JUMP JUMPDEST CALLVALUE DUP1 ISZERO PUSH2 0x387 JUMPI PUSH1 0x0 DUP1 REVERT JUMPDEST POP PUSH2 0x16D PUSH1 0x5 DUP2 JUMP JUMPDEST CALLVALUE DUP1 ISZERO PUSH2 0x39C JUMPI PUSH1 0x0 DUP1 REVERT JUMPDEST POP PUSH2 0x287 PUSH2 0x3AB CALLDATASIZE PUSH1 0x4 PUSH2 0x1624 JUMP JUMPDEST PUSH2 0x10B2 JUMP JUMPDEST CALLVALUE DUP1 ISZERO PUSH2 0x3BC JUMPI PUSH1 0x0 DUP1 REVERT JUMPDEST POP PUSH2 0x15A PUSH2 0x10DC JUMP JUMPDEST CALLVALUE DUP1 ISZERO PUSH2 0x3D1 JUMPI PUSH1 0x0 DUP1 REVERT JUMPDEST POP PUSH2 0x16D PUSH2 0x3E0 CALLDATASIZE PUSH1 0x4 PUSH2 0x188F JUMP JUMPDEST PUSH2 0x118F JUMP JUMPDEST CALLVALUE DUP1 ISZERO PUSH2 0x3F1 JUMPI PUSH1 0x0 DUP1 REVERT JUMPDEST POP PUSH2 0x15A PUSH2 0x400 CALLDATASIZE PUSH1 0x4 PUSH2 0x17E1 JUMP JUMPDEST PUSH2 0x1341 JUMP JUMPDEST CALLVALUE DUP1 ISZERO PUSH2 0x411 JUMPI PUSH1 0x0 DUP1 REVERT JUMPDEST POP PUSH2 0x16D PUSH2 0x420 CALLDATASIZE PUSH1 0x4 PUSH2 0x17E1 JUMP JUMPDEST PUSH1 0x3 PUSH1 0x20 MSTORE PUSH1 0x0 SWAP1 DUP2 MSTORE PUSH1 0x40 SWAP1 KECCAK256 SLOAD DUP2 JUMP JUMPDEST PUSH2 0x43A PUSH2 0x1381 JUMP JUMPDEST PUSH1 0x0 DUP3 DUP2 MSTORE PUSH1 0x6 PUSH1 0x20 MSTORE PUSH1 0x40 SWAP1 KECCAK256 SLOAD PUSH1 0x1 PUSH1 0x1 PUSH1 0xA0 SHL SUB AND CALLER EQ PUSH2 0x471 JUMPI PUSH1 0x40 MLOAD PUSH4 0x7D512D5 PUSH1 0xE4 SHL DUP2 MSTORE PUSH1 0x4 ADD PUSH1 0x40 MLOAD DUP1 SWAP2 SUB SWAP1 REVERT JUMPDEST PUSH1 0x0 DUP3 DUP2 MSTORE PUSH1 0x2 PUSH1 0x20 MSTORE PUSH1 0x40 SWAP1 KECCAK256 PUSH1 0x3 PUSH1 0x6 DUP3 ADD SLOAD PUSH1 0xFF AND PUSH1 0x4 DUP2 GT ISZERO PUSH2 0x49A JUMPI PUSH2 0x49A PUSH2 0x1683 JUMP JUMPDEST EQ PUSH2 0x4B8 JUMPI PUSH1 0x40 MLOAD PUSH4 0x37A2C477 PUSH1 0xE2 SHL DUP2 MSTORE PUSH1 0x4 ADD PUSH1 0x40 MLOAD DUP1 SWAP2 SUB SWAP1 REVERT JUMPDEST PUSH1 0x0 DUP2 PUSH1 0x3 ADD SLOAD DUP3 PUSH1 0x4 ADD SLOAD PUSH2 0x4CE SWAP2 SWAP1 PUSH2 0x1969 JUMP JUMPDEST PUSH1 0x2 DUP4 ADD SLOAD PUSH1 0x1 PUSH1 0x1 PUSH1 0xA0 SHL SUB AND PUSH1 0x0 SWAP1 DUP2 MSTORE PUSH1 0x3 PUSH1 0x20 MSTORE PUSH1 0x40 DUP2 KECCAK256 DUP1 SLOAD SWAP3 SWAP4 POP SWAP2 PUSH2 0x4F9 SWAP1 PUSH2 0x1982 JUMP JUMPDEST SWAP1 SWAP2 SSTORE POP PUSH1 0x6 DUP3 DUP2 ADD DUP1 SLOAD PUSH1 0xFF NOT AND SWAP1 SSTORE PUSH1 0x2 DUP4 ADD DUP1 SLOAD PUSH1 0x1 PUSH1 0x1 PUSH1 0xA0 SHL SUB NOT SWAP1 DUP2 AND SWAP1 SWAP2 SSTORE PUSH1 0x0 DUP7 DUP2 MSTORE PUSH1 0x20 SWAP3 SWAP1 SWAP3 MSTORE PUSH1 0x40 DUP1 DUP4 KECCAK256 DUP1 SLOAD SWAP1 SWAP3 AND SWAP1 SWAP2 SSTORE MLOAD PUSH1 0x1 PUSH1 0x1 PUSH1 0xA0 SHL SUB DUP6 AND SWAP2 PUSH2 0x8FC DUP5 ISZERO MUL SWAP2 DUP5 SWAP2 DUP2 DUP2 DUP2 DUP6 DUP9 DUP9 CALL SWAP4 POP POP POP POP ISZERO DUP1 ISZERO PUSH2 0x569 JUMPI RETURNDATASIZE PUSH1 0x0 DUP1 RETURNDATACOPY RETURNDATASIZE PUSH1 0x0 REVERT JUMPDEST POP PUSH1 0x40 MLOAD PUSH1 0x1 PUSH1 0x1 PUSH1 0xA0 SHL SUB DUP5 AND SWAP1 DUP6 SWAP1 PUSH32 0xF77CEB5E091D2DA041BC760667F9D5FE7A756949EAF29250AD0E60CA6F4C27D9 SWAP1 PUSH1 0x0 SWAP1 LOG3 POP POP PUSH2 0x5B9 PUSH1 0x1 PUSH1 0x0 DUP1 MLOAD PUSH1 0x20 PUSH2 0x1BA5 DUP4 CODECOPY DUP2 MLOAD SWAP2 MSTORE SSTORE JUMP JUMPDEST POP POP JUMP JUMPDEST PUSH1 0x0 DUP2 DUP2 MSTORE PUSH1 0x2 PUSH1 0x20 MSTORE PUSH1 0x40 SWAP1 KECCAK256 PUSH1 0x1 PUSH1 0x6 DUP3 ADD SLOAD PUSH1 0xFF AND PUSH1 0x4 DUP2 GT ISZERO PUSH2 0x5E6 JUMPI PUSH2 0x5E6 PUSH2 0x1683 JUMP JUMPDEST EQ PUSH2 0x604 JUMPI PUSH1 0x40 MLOAD PUSH4 0x37A2C477 PUSH1 0xE2 SHL DUP2 MSTORE PUSH1 0x4 ADD PUSH1 0x40 MLOAD DUP1 SWAP2 SUB SWAP1 REVERT JUMPDEST PUSH1 0x2 DUP2 ADD SLOAD PUSH1 0x1 PUSH1 0x1 PUSH1 0xA0 SHL SUB AND CALLER EQ PUSH2 0x631 JUMPI PUSH1 0x40 MLOAD PUSH4 0x59B703AF PUSH1 0xE0 SHL DUP2 MSTORE PUSH1 0x4 ADD PUSH1 0x40 MLOAD DUP1 SWAP2 SUB SWAP1 REVERT JUMPDEST PUSH1 0x6 DUP2 ADD DUP1 SLOAD PUSH1 0xFF NOT AND PUSH1 0x2 OR SWAP1 SSTORE TIMESTAMP PUSH1 0x8 DUP3 ADD SSTORE PUSH1 0x40 MLOAD CALLER SWAP1 DUP4 SWAP1 PUSH32 0xC3193E818CDB299F699A8AE99C460279D0DE3B72CE9331E279A52515BB5ACA9F SWAP1 PUSH1 0x0 SWAP1 LOG3 POP POP JUMP JUMPDEST PUSH2 0x67F PUSH2 0x1381 JUMP JUMPDEST PUSH1 0x0 DUP2 DUP2 MSTORE PUSH1 0x2 PUSH1 0x20 DUP2 SWAP1 MSTORE PUSH1 0x40 SWAP1 SWAP2 KECCAK256 SWAP1 PUSH1 0x6 DUP3 ADD SLOAD PUSH1 0xFF AND PUSH1 0x4 DUP2 GT ISZERO PUSH2 0x6AA JUMPI PUSH2 0x6AA PUSH2 0x1683 JUMP JUMPDEST EQ PUSH2 0x6C8 JUMPI PUSH1 0x40 MLOAD PUSH4 0x37A2C477 PUSH1 0xE2 SHL DUP2 MSTORE PUSH1 0x4 ADD PUSH1 0x40 MLOAD DUP1 SWAP2 SUB SWAP1 REVERT JUMPDEST PUSH1 0x1 DUP2 ADD SLOAD PUSH1 0x1 PUSH1 0x1 PUSH1 0xA0 SHL SUB AND CALLER EQ DUP1 ISZERO SWAP1 PUSH2 0x6F5 JUMPI POP PUSH1 0x8 DUP2 ADD SLOAD PUSH2 0x6F2 SWAP1 PUSH3 0x2A300 PUSH2 0x1969 JUMP JUMPDEST TIMESTAMP LT JUMPDEST ISZERO PUSH2 0x713 JUMPI PUSH1 0x40 MLOAD PUSH4 0x63C9D95B PUSH1 0xE0 SHL DUP2 MSTORE PUSH1 0x4 ADD PUSH1 0x40 MLOAD DUP1 SWAP2 SUB SWAP1 REVERT JUMPDEST PUSH1 0x0 DUP2 PUSH1 0x7 ADD SLOAD DUP3 PUSH1 0x8 ADD SLOAD PUSH2 0x729 SWAP2 SWAP1 PUSH2 0x1999 JUMP JUMPDEST SWAP1 POP PUSH1 0x0 PUSH2 0x73A PUSH3 0x15180 DUP4 PUSH2 0x19C2 JUMP JUMPDEST SWAP1 POP PUSH1 0x0 PUSH2 0x74B PUSH3 0x15180 DUP5 PUSH2 0x19D6 JUMP JUMPDEST GT ISZERO PUSH2 0x75F JUMPI DUP1 PUSH2 0x75B DUP2 PUSH2 0x19EA JUMP JUMPDEST SWAP2 POP POP JUMPDEST DUP1 PUSH1 0x0 SUB PUSH2 0x76B JUMPI POP PUSH1 0x1 JUMPDEST PUSH1 0x0 PUSH1 0x7 DUP3 GT ISZERO PUSH2 0x77D JUMPI PUSH1 0x7 PUSH2 0x77F JUMP JUMPDEST DUP2 JUMPDEST SWAP1 POP PUSH1 0x0 PUSH1 0x7 DUP4 GT PUSH2 0x792 JUMPI PUSH1 0x0 PUSH2 0x79D JUMP JUMPDEST PUSH2 0x79D PUSH1 0x7 DUP5 PUSH2 0x1999 JUMP JUMPDEST SWAP1 POP PUSH1 0x0 DUP6 PUSH1 0x3 ADD SLOAD DUP3 PUSH2 0x7B1 SWAP2 SWAP1 PUSH2 0x1A03 JUMP JUMPDEST PUSH2 0x7BC SWAP1 PUSH1 0x2 PUSH2 0x1A03 JUMP JUMPDEST PUSH1 0x3 DUP8 ADD SLOAD PUSH2 0x7CB SWAP1 DUP6 PUSH2 0x1A03 JUMP JUMPDEST PUSH2 0x7D5 SWAP2 SWAP1 PUSH2 0x1969 JUMP JUMPDEST SWAP1 POP PUSH1 0x0 DUP7 PUSH1 0x3 ADD SLOAD DUP3 GT PUSH2 0x7EB JUMPI PUSH1 0x0 PUSH2 0x7FA JUMP JUMPDEST PUSH1 0x3 DUP8 ADD SLOAD PUSH2 0x7FA SWAP1 DUP4 PUSH2 0x1999 JUMP JUMPDEST SWAP1 POP PUSH1 0x0 DUP1 DUP9 PUSH1 0x4 ADD SLOAD DUP4 LT PUSH2 0x829 JUMPI PUSH1 0x0 SWAP2 POP DUP9 PUSH1 0x3 ADD SLOAD DUP10 PUSH1 0x4 ADD SLOAD PUSH2 0x822 SWAP2 SWAP1 PUSH2 0x1969 JUMP JUMPDEST SWAP1 POP PUSH2 0x84E JUMP JUMPDEST DUP3 DUP10 PUSH1 0x4 ADD SLOAD PUSH2 0x839 SWAP2 SWAP1 PUSH2 0x1999 JUMP JUMPDEST SWAP2 POP DUP3 DUP10 PUSH1 0x3 ADD SLOAD PUSH2 0x84B SWAP2 SWAP1 PUSH2 0x1969 JUMP JUMPDEST SWAP1 POP JUMPDEST PUSH1 0x6 DUP10 ADD DUP1 SLOAD PUSH1 0xFF NOT AND SWAP1 SSTORE PUSH1 0x2 DUP10 ADD DUP1 SLOAD PUSH1 0x1 PUSH1 0x1 PUSH1 0xA0 SHL SUB NOT DUP2 AND SWAP1 SWAP2 SSTORE PUSH1 0x1 PUSH1 0x1 PUSH1 0xA0 SHL SUB AND PUSH1 0x0 DUP2 DUP2 MSTORE PUSH1 0x3 PUSH1 0x20 MSTORE PUSH1 0x40 DUP2 KECCAK256 DUP1 SLOAD SWAP1 SWAP2 SWAP1 PUSH2 0x893 SWAP1 PUSH2 0x1982 JUMP JUMPDEST SWAP1 SWAP2 SSTORE POP DUP2 ISZERO PUSH2 0x8DB JUMPI PUSH1 0x1 DUP11 ADD SLOAD PUSH1 0x40 MLOAD PUSH1 0x1 PUSH1 0x1 PUSH1 0xA0 SHL SUB SWAP1 SWAP2 AND SWAP1 DUP4 ISZERO PUSH2 0x8FC MUL SWAP1 DUP5 SWAP1 PUSH1 0x0 DUP2 DUP2 DUP2 DUP6 DUP9 DUP9 CALL SWAP4 POP POP POP POP ISZERO DUP1 ISZERO PUSH2 0x8D9 JUMPI RETURNDATASIZE PUSH1 0x0 DUP1 RETURNDATACOPY RETURNDATASIZE PUSH1 0x0 REVERT JUMPDEST POP JUMPDEST DUP3 ISZERO PUSH2 0x919 JUMPI PUSH1 0x40 MLOAD PUSH1 0x1 PUSH1 0x1 PUSH1 0xA0 SHL SUB DUP3 AND SWAP1 DUP5 ISZERO PUSH2 0x8FC MUL SWAP1 DUP6 SWAP1 PUSH1 0x0 DUP2 DUP2 DUP2 DUP6 DUP9 DUP9 CALL SWAP4 POP POP POP POP ISZERO DUP1 ISZERO PUSH2 0x917 JUMPI RETURNDATASIZE PUSH1 0x0 DUP1 RETURNDATACOPY RETURNDATASIZE PUSH1 0x0 REVERT JUMPDEST POP JUMPDEST DUP11 PUSH32 0xB2C4110A20D27FD2A835295123D67E5F9434FE1CB3C3133245B909EA88A80C9D DUP5 PUSH1 0x40 MLOAD PUSH2 0x94B SWAP2 DUP2 MSTORE PUSH1 0x20 ADD SWAP1 JUMP JUMPDEST PUSH1 0x40 MLOAD DUP1 SWAP2 SUB SWAP1 LOG2 POP POP POP POP POP POP POP POP POP POP PUSH2 0x974 PUSH1 0x1 PUSH1 0x0 DUP1 MLOAD PUSH1 0x20 PUSH2 0x1BA5 DUP4 CODECOPY DUP2 MLOAD SWAP2 MSTORE SSTORE JUMP JUMPDEST POP JUMP JUMPDEST PUSH2 0x9CC PUSH1 0x40 DUP1 MLOAD PUSH2 0x140 DUP2 ADD DUP3 MSTORE PUSH1 0x0 DUP1 DUP3 MSTORE PUSH1 0x20 DUP3 ADD DUP2 SWAP1 MSTORE SWAP2 DUP2 ADD DUP3 SWAP1 MSTORE PUSH1 0x60 DUP1 DUP3 ADD DUP4 SWAP1 MSTORE PUSH1 0x80 DUP3 ADD DUP4 SWAP1 MSTORE PUSH1 0xA0 DUP3 ADD MSTORE SWAP1 PUSH1 0xC0 DUP3 ADD SWAP1 DUP2 MSTORE PUSH1 0x20 ADD PUSH1 0x0 DUP2 MSTORE PUSH1 0x20 ADD PUSH1 0x0 DUP2 MSTORE PUSH1 0x20 ADD PUSH1 0x0 DUP2 MSTORE POP SWAP1 JUMP JUMPDEST PUSH1 0x0 DUP3 DUP2 MSTORE PUSH1 0x2 PUSH1 0x20 DUP2 DUP2 MSTORE PUSH1 0x40 SWAP3 DUP4 SWAP1 KECCAK256 DUP4 MLOAD PUSH2 0x140 DUP2 ADD DUP6 MSTORE DUP2 SLOAD DUP2 MSTORE PUSH1 0x1 DUP3 ADD SLOAD PUSH1 0x1 PUSH1 0x1 PUSH1 0xA0 SHL SUB SWAP1 DUP2 AND SWAP4 DUP3 ADD SWAP4 SWAP1 SWAP4 MSTORE SWAP3 DUP2 ADD SLOAD SWAP1 SWAP2 AND SWAP3 DUP3 ADD SWAP3 SWAP1 SWAP3 MSTORE PUSH1 0x3 DUP3 ADD SLOAD PUSH1 0x60 DUP3 ADD MSTORE PUSH1 0x4 DUP3 ADD SLOAD PUSH1 0x80 DUP3 ADD MSTORE PUSH1 0x5 DUP3 ADD DUP1 SLOAD SWAP2 SWAP3 SWAP2 PUSH1 0xA0 DUP5 ADD SWAP2 SWAP1 PUSH2 0xA3C SWAP1 PUSH2 0x1A1A JUMP JUMPDEST DUP1 PUSH1 0x1F ADD PUSH1 0x20 DUP1 SWAP2 DIV MUL PUSH1 0x20 ADD PUSH1 0x40 MLOAD SWAP1 DUP2 ADD PUSH1 0x40 MSTORE DUP1 SWAP3 SWAP2 SWAP1 DUP2 DUP2 MSTORE PUSH1 0x20 ADD DUP3 DUP1 SLOAD PUSH2 0xA68 SWAP1 PUSH2 0x1A1A JUMP JUMPDEST DUP1 ISZERO PUSH2 0xAB5 JUMPI DUP1 PUSH1 0x1F LT PUSH2 0xA8A JUMPI PUSH2 0x100 DUP1 DUP4 SLOAD DIV MUL DUP4 MSTORE SWAP2 PUSH1 0x20 ADD SWAP2 PUSH2 0xAB5 JUMP JUMPDEST DUP3 ADD SWAP2 SWAP1 PUSH1 0x0 MSTORE PUSH1 0x20 PUSH1 0x0 KECCAK256 SWAP1 JUMPDEST DUP2 SLOAD DUP2 MSTORE SWAP1 PUSH1 0x1 ADD SWAP1 PUSH1 0x20 ADD DUP1 DUP4 GT PUSH2 0xA98 JUMPI DUP3 SWAP1 SUB PUSH1 0x1F AND DUP3 ADD SWAP2 JUMPDEST POP POP POP SWAP2 DUP4 MSTORE POP POP PUSH1 0x6 DUP3 ADD SLOAD PUSH1 0x20 SWAP1 SWAP2 ADD SWAP1 PUSH1 0xFF AND PUSH1 0x4 DUP2 GT ISZERO PUSH2 0xADC JUMPI PUSH2 0xADC PUSH2 0x1683 JUMP JUMPDEST PUSH1 0x4 DUP2 GT ISZERO PUSH2 0xAED JUMPI PUSH2 0xAED PUSH2 0x1683 JUMP JUMPDEST DUP2 MSTORE PUSH1 0x7 DUP3 ADD SLOAD PUSH1 0x20 DUP3 ADD MSTORE PUSH1 0x8 DUP3 ADD SLOAD PUSH1 0x40 DUP3 ADD MSTORE PUSH1 0x9 SWAP1 SWAP2 ADD SLOAD PUSH1 0x60 SWAP1 SWAP2 ADD MSTORE SWAP3 SWAP2 POP POP JUMP JUMPDEST PUSH1 0x60 PUSH1 0x4 DUP1 SLOAD DUP1 PUSH1 0x20 MUL PUSH1 0x20 ADD PUSH1 0x40 MLOAD SWAP1 DUP2 ADD PUSH1 0x40 MSTORE DUP1 SWAP3 SWAP2 SWAP1 DUP2 DUP2 MSTORE PUSH1 0x20 ADD DUP3 DUP1 SLOAD DUP1 ISZERO PUSH2 0xB6D JUMPI PUSH1 0x20 MUL DUP3 ADD SWAP2 SWAP1 PUSH1 0x0 MSTORE PUSH1 0x20 PUSH1 0x0 KECCAK256 SWAP1 JUMPDEST DUP2 SLOAD PUSH1 0x1 PUSH1 0x1 PUSH1 0xA0 SHL SUB AND DUP2 MSTORE PUSH1 0x1 SWAP1 SWAP2 ADD SWAP1 PUSH1 0x20 ADD DUP1 DUP4 GT PUSH2 0xB4F JUMPI JUMPDEST POP POP POP POP POP SWAP1 POP SWAP1 JUMP JUMPDEST PUSH2 0xB7F PUSH2 0x139D JUMP JUMPDEST PUSH2 0xB89 PUSH1 0x0 PUSH2 0x13CA JUMP JUMPDEST JUMP JUMPDEST PUSH2 0xB93 PUSH2 0x1381 JUMP JUMPDEST DUP1 PUSH2 0xBB1 JUMPI PUSH1 0x40 MLOAD PUSH4 0x21BE209 PUSH1 0xE4 SHL DUP2 MSTORE PUSH1 0x4 ADD PUSH1 0x40 MLOAD DUP1 SWAP2 SUB SWAP1 REVERT JUMPDEST PUSH1 0x0 DUP3 DUP2 MSTORE PUSH1 0x2 PUSH1 0x20 MSTORE PUSH1 0x40 DUP2 KECCAK256 SWAP1 PUSH1 0x6 DUP3 ADD SLOAD PUSH1 0xFF AND PUSH1 0x4 DUP2 GT ISZERO PUSH2 0xBD9 JUMPI PUSH2 0xBD9 PUSH2 0x1683 JUMP JUMPDEST EQ PUSH2 0xBF7 JUMPI PUSH1 0x40 MLOAD PUSH4 0x37A2C477 PUSH1 0xE2 SHL DUP2 MSTORE PUSH1 0x4 ADD PUSH1 0x40 MLOAD DUP1 SWAP2 SUB SWAP1 REVERT JUMPDEST PUSH1 0x1 DUP2 ADD SLOAD PUSH1 0x1 PUSH1 0x1 PUSH1 0xA0 SHL SUB AND CALLER SUB PUSH2 0xC24 JUMPI PUSH1 0x40 MLOAD PUSH4 0x32051159 PUSH1 0xE2 SHL DUP2 MSTORE PUSH1 0x4 ADD PUSH1 0x40 MLOAD DUP1 SWAP2 SUB SWAP1 REVERT JUMPDEST CALLER PUSH1 0x0 SWAP1 DUP2 MSTORE PUSH1 0x3 PUSH1 0x20 MSTORE PUSH1 0x40 SWAP1 KECCAK256 SLOAD PUSH1 0x5 GT PUSH2 0xC54 JUMPI PUSH1 0x40 MLOAD PUSH4 0x699920AB PUSH1 0xE1 SHL DUP2 MSTORE PUSH1 0x4 ADD PUSH1 0x40 MLOAD DUP1 SWAP2 SUB SWAP1 REVERT JUMPDEST PUSH1 0x0 DUP2 PUSH1 0x3 ADD SLOAD DUP3 PUSH1 0x4 ADD SLOAD PUSH2 0xC6A SWAP2 SWAP1 PUSH2 0x1969 JUMP JUMPDEST SWAP1 POP DUP1 CALLVALUE LT ISZERO PUSH2 0xC8D JUMPI PUSH1 0x40 MLOAD PUSH4 0x75893331 PUSH1 0xE1 SHL DUP2 MSTORE PUSH1 0x4 ADD PUSH1 0x40 MLOAD DUP1 SWAP2 SUB SWAP1 REVERT JUMPDEST PUSH1 0x6 DUP3 ADD DUP1 SLOAD PUSH1 0xFF NOT AND PUSH1 0x1 OR SWAP1 SSTORE PUSH1 0x2 DUP3 ADD DUP1 SLOAD CALLER PUSH1 0x1 PUSH1 0x1 PUSH1 0xA0 SHL SUB NOT SWAP1 SWAP2 AND DUP2 OR SWAP1 SWAP2 SSTORE TIMESTAMP PUSH1 0x7 DUP5 ADD SSTORE PUSH1 0x0 PUSH1 0x8 DUP5 ADD DUP2 SWAP1 SSTORE PUSH1 0x9 DUP5 ADD DUP2 SWAP1 SSTORE SWAP1 DUP2 MSTORE PUSH1 0x3 PUSH1 0x20 MSTORE PUSH1 0x40 DUP2 KECCAK256 DUP1 SLOAD SWAP1 SWAP2 SWAP1 PUSH2 0xCE4 SWAP1 PUSH2 0x19EA JUMP JUMPDEST SWAP1 SWAP2 SSTORE POP PUSH1 0x40 MLOAD CALLER SWAP1 DUP6 SWAP1 PUSH32 0x60A8AD5021D41AFC35CAD1DCAD49A375A37F3D9C05C95BDF82D653AE99869A0C SWAP1 PUSH1 0x0 SWAP1 LOG3 POP POP PUSH2 0x5B9 PUSH1 0x1 PUSH1 0x0 DUP1 MLOAD PUSH1 0x20 PUSH2 0x1BA5 DUP4 CODECOPY DUP2 MLOAD SWAP2 MSTORE SSTORE JUMP JUMPDEST CALLER PUSH1 0x0 SWAP1 DUP2 MSTORE PUSH1 0x5 PUSH1 0x20 MSTORE PUSH1 0x40 SWAP1 KECCAK256 SLOAD PUSH1 0xFF AND PUSH2 0xD5E JUMPI PUSH1 0x40 MLOAD PUSH4 0x54A6979 PUSH1 0xE0 SHL DUP2 MSTORE PUSH1 0x4 ADD PUSH1 0x40 MLOAD DUP1 SWAP2 SUB SWAP1 REVERT JUMPDEST CALLER PUSH1 0x0 SWAP1 DUP2 MSTORE PUSH1 0x5 PUSH1 0x20 MSTORE PUSH1 0x40 DUP2 KECCAK256 DUP1 SLOAD PUSH1 0xFF NOT AND SWAP1 SSTORE JUMPDEST PUSH1 0x4 SLOAD DUP2 LT ISZERO PUSH2 0xE71 JUMPI CALLER PUSH1 0x1 PUSH1 0x1 PUSH1 0xA0 SHL SUB AND PUSH1 0x4 DUP3 DUP2 SLOAD DUP2 LT PUSH2 0xD9D JUMPI PUSH2 0xD9D PUSH2 0x1A54 JUMP JUMPDEST PUSH1 0x0 SWAP2 DUP3 MSTORE PUSH1 0x20 SWAP1 SWAP2 KECCAK256 ADD SLOAD PUSH1 0x1 PUSH1 0x1 PUSH1 0xA0 SHL SUB AND SUB PUSH2 0xE69 JUMPI PUSH1 0x4 DUP1 SLOAD PUSH2 0xDC7 SWAP1 PUSH1 0x1 SWAP1 PUSH2 0x1999 JUMP JUMPDEST DUP2 SLOAD DUP2 LT PUSH2 0xDD7 JUMPI PUSH2 0xDD7 PUSH2 0x1A54 JUMP JUMPDEST PUSH1 0x0 SWAP2 DUP3 MSTORE PUSH1 0x20 SWAP1 SWAP2 KECCAK256 ADD SLOAD PUSH1 0x4 DUP1 SLOAD PUSH1 0x1 PUSH1 0x1 PUSH1 0xA0 SHL SUB SWAP1 SWAP3 AND SWAP2 DUP4 SWAP1 DUP2 LT PUSH2 0xE03 JUMPI PUSH2 0xE03 PUSH2 0x1A54 JUMP JUMPDEST SWAP1 PUSH1 0x0 MSTORE PUSH1 0x20 PUSH1 0x0 KECCAK256 ADD PUSH1 0x0 PUSH2 0x100 EXP DUP2 SLOAD DUP2 PUSH1 0x1 PUSH1 0x1 PUSH1 0xA0 SHL SUB MUL NOT AND SWAP1 DUP4 PUSH1 0x1 PUSH1 0x1 PUSH1 0xA0 SHL SUB AND MUL OR SWAP1 SSTORE POP PUSH1 0x4 DUP1 SLOAD DUP1 PUSH2 0xE42 JUMPI PUSH2 0xE42 PUSH2 0x1A6A JUMP JUMPDEST PUSH1 0x0 DUP3 DUP2 MSTORE PUSH1 0x20 SWAP1 KECCAK256 DUP2 ADD PUSH1 0x0 NOT SWAP1 DUP2 ADD DUP1 SLOAD PUSH1 0x1 PUSH1 0x1 PUSH1 0xA0 SHL SUB NOT AND SWAP1 SSTORE ADD SWAP1 SSTORE PUSH2 0xE71 JUMP JUMPDEST PUSH1 0x1 ADD PUSH2 0xD76 JUMP JUMPDEST POP PUSH1 0x40 MLOAD CALLER SWAP1 PUSH32 0x715484ADB5BC9CC29AF577725DBF8486D0B82ECA3BA79F65846E92FF38EF32B5 SWAP1 PUSH1 0x0 SWAP1 LOG2 JUMP JUMPDEST PUSH1 0x0 DUP2 DUP2 MSTORE PUSH1 0x2 PUSH1 0x20 DUP2 SWAP1 MSTORE PUSH1 0x40 SWAP1 SWAP2 KECCAK256 SWAP1 PUSH1 0x6 DUP3 ADD SLOAD PUSH1 0xFF AND PUSH1 0x4 DUP2 GT ISZERO PUSH2 0xECA JUMPI PUSH2 0xECA PUSH2 0x1683 JUMP JUMPDEST EQ PUSH2 0xEE8 JUMPI PUSH1 0x40 MLOAD PUSH4 0x37A2C477 PUSH1 0xE2 SHL DUP2 MSTORE PUSH1 0x4 ADD PUSH1 0x40 MLOAD DUP1 SWAP2 SUB SWAP1 REVERT JUMPDEST PUSH1 0x2 DUP2 ADD SLOAD PUSH1 0x1 PUSH1 0x1 PUSH1 0xA0 SHL SUB AND CALLER EQ DUP1 ISZERO SWAP1 PUSH2 0xF12 JUMPI POP PUSH1 0x1 DUP2 ADD SLOAD PUSH1 0x1 PUSH1 0x1 PUSH1 0xA0 SHL SUB AND CALLER EQ ISZERO JUMPDEST ISZERO PUSH2 0xF30 JUMPI PUSH1 0x40 MLOAD PUSH4 0x6E14C4DD PUSH1 0xE1 SHL DUP2 MSTORE PUSH1 0x4 ADD PUSH1 0x40 MLOAD DUP1 SWAP2 SUB SWAP1 REVERT JUMPDEST PUSH1 0x1 DUP2 ADD SLOAD PUSH1 0x2 DUP3 ADD SLOAD PUSH1 0x0 SWAP2 PUSH2 0xF54 SWAP2 PUSH1 0x1 PUSH1 0x1 PUSH1 0xA0 SHL SUB SWAP2 DUP3 AND SWAP2 AND DUP6 PUSH2 0x141A JUMP JUMPDEST PUSH1 0x0 DUP5 DUP2 MSTORE PUSH1 0x6 PUSH1 0x20 DUP2 SWAP1 MSTORE PUSH1 0x40 DUP1 DUP4 KECCAK256 DUP1 SLOAD PUSH1 0x1 PUSH1 0x1 PUSH1 0xA0 SHL SUB DUP7 AND PUSH1 0x1 PUSH1 0x1 PUSH1 0xA0 SHL SUB NOT SWAP1 SWAP2 AND DUP2 OR SWAP1 SWAP2 SSTORE SWAP2 DUP7 ADD DUP1 SLOAD PUSH1 0xFF NOT AND PUSH1 0x3 OR SWAP1 SSTORE TIMESTAMP PUSH1 0x9 DUP8 ADD SSTORE MLOAD SWAP3 SWAP4 POP SWAP2 CALLER SWAP2 DUP7 SWAP2 PUSH32 0x32C3577AD32544A8C06C1B330ADA404F03A4D405574E524DD6D86EEBA5F21E73 SWAP2 SWAP1 LOG4 POP POP POP JUMP JUMPDEST PUSH1 0x2 PUSH1 0x20 DUP2 SWAP1 MSTORE PUSH1 0x0 SWAP2 DUP3 MSTORE PUSH1 0x40 SWAP1 SWAP2 KECCAK256 DUP1 SLOAD PUSH1 0x1 DUP3 ADD SLOAD SWAP3 DUP3 ADD SLOAD PUSH1 0x3 DUP4 ADD SLOAD PUSH1 0x4 DUP5 ADD SLOAD PUSH1 0x5 DUP6 ADD DUP1 SLOAD SWAP5 SWAP7 PUSH1 0x1 PUSH1 0x1 PUSH1 0xA0 SHL SUB SWAP1 DUP2 AND SWAP7 SWAP5 AND SWAP5 SWAP3 SWAP4 SWAP2 SWAP3 PUSH2 0x1012 SWAP1 PUSH2 0x1A1A JUMP JUMPDEST DUP1 PUSH1 0x1F ADD PUSH1 0x20 DUP1 SWAP2 DIV MUL PUSH1 0x20 ADD PUSH1 0x40 MLOAD SWAP1 DUP2 ADD PUSH1 0x40 MSTORE DUP1 SWAP3 SWAP2 SWAP1 DUP2 DUP2 MSTORE PUSH1 0x20 ADD DUP3 DUP1 SLOAD PUSH2 0x103E SWAP1 PUSH2 0x1A1A JUMP JUMPDEST DUP1 ISZERO PUSH2 0x108B JUMPI DUP1 PUSH1 0x1F LT PUSH2 0x1060 JUMPI PUSH2 0x100 DUP1 DUP4 SLOAD DIV MUL DUP4 MSTORE SWAP2 PUSH1 0x20 ADD SWAP2 PUSH2 0x108B JUMP JUMPDEST DUP3 ADD SWAP2 SWAP1 PUSH1 0x0 MSTORE PUSH1 0x20 PUSH1 0x0 KECCAK256 SWAP1 JUMPDEST DUP2 SLOAD DUP2 MSTORE SWAP1 PUSH1 0x1 ADD SWAP1 PUSH1 0x20 ADD DUP1 DUP4 GT PUSH2 0x106E JUMPI DUP3 SWAP1 SUB PUSH1 0x1F AND DUP3 ADD SWAP2 JUMPDEST POP POP POP POP PUSH1 0x6 DUP4 ADD SLOAD PUSH1 0x7 DUP5 ADD SLOAD PUSH1 0x8 DUP6 ADD SLOAD PUSH1 0x9 SWAP1 SWAP6 ADD SLOAD SWAP4 SWAP5 PUSH1 0xFF SWAP1 SWAP3 AND SWAP4 SWAP1 SWAP3 POP DUP11 JUMP JUMPDEST PUSH1 0x4 DUP2 DUP2 SLOAD DUP2 LT PUSH2 0x10C2 JUMPI PUSH1 0x0 DUP1 REVERT JUMPDEST PUSH1 0x0 SWAP2 DUP3 MSTORE PUSH1 0x20 SWAP1 SWAP2 KECCAK256 ADD SLOAD PUSH1 0x1 PUSH1 0x1 PUSH1 0xA0 SHL SUB AND SWAP1 POP DUP2 JUMP JUMPDEST CALLER PUSH1 0x0 SWAP1 DUP2 MSTORE PUSH1 0x5 PUSH1 0x20 MSTORE PUSH1 0x40 SWAP1 KECCAK256 SLOAD PUSH1 0xFF AND ISZERO PUSH2 0x110D JUMPI PUSH1 0x40 MLOAD PUSH4 0xE1E689F PUSH1 0xE1 SHL DUP2 MSTORE PUSH1 0x4 ADD PUSH1 0x40 MLOAD DUP1 SWAP2 SUB SWAP1 REVERT JUMPDEST CALLER PUSH1 0x0 DUP2 DUP2 MSTORE PUSH1 0x5 PUSH1 0x20 MSTORE PUSH1 0x40 DUP1 DUP3 KECCAK256 DUP1 SLOAD PUSH1 0xFF NOT AND PUSH1 0x1 SWAP1 DUP2 OR SWAP1 SWAP2 SSTORE PUSH1 0x4 DUP1 SLOAD SWAP2 DUP3 ADD DUP2 SSTORE DUP4 MSTORE PUSH32 0x8A35ACFBC15FF81A39AE7D344FD709F28E8600B4AA8C65C6B64BFE7FE36BD19B ADD DUP1 SLOAD PUSH1 0x1 PUSH1 0x1 PUSH1 0xA0 SHL SUB NOT AND DUP5 OR SWAP1 SSTORE MLOAD PUSH32 0xC80BAD7F86A895F590D6BEAA663CCF7F0DE84F1FD2A042B944433700879D6122 SWAP2 SWAP1 LOG2 JUMP JUMPDEST PUSH1 0x0 DUP4 MLOAD PUSH1 0x0 SUB PUSH2 0x11B3 JUMPI PUSH1 0x40 MLOAD PUSH4 0x1A2DA5DF PUSH1 0xE2 SHL DUP2 MSTORE PUSH1 0x4 ADD PUSH1 0x40 MLOAD DUP1 SWAP2 SUB SWAP1 REVERT JUMPDEST DUP3 DUP3 LT ISZERO PUSH2 0x11D4 JUMPI PUSH1 0x40 MLOAD PUSH4 0x7AE42CD PUSH1 0xE4 SHL DUP2 MSTORE PUSH1 0x4 ADD PUSH1 0x40 MLOAD DUP1 SWAP2 SUB SWAP1 REVERT JUMPDEST PUSH1 0x1 PUSH1 0x0 DUP2 SLOAD PUSH2 0x11E3 SWAP1 PUSH2 0x19EA JUMP JUMPDEST SWAP1 SWAP2 SSTORE POP PUSH1 0x40 DUP1 MLOAD PUSH2 0x140 DUP2 ADD DUP3 MSTORE PUSH1 0x1 DUP1 SLOAD DUP1 DUP4 MSTORE CALLER PUSH1 0x20 DUP1 DUP6 ADD SWAP2 DUP3 MSTORE PUSH1 0x0 DUP6 DUP8 ADD DUP2 DUP2 MSTORE PUSH1 0x60 DUP8 ADD DUP12 DUP2 MSTORE PUSH1 0x80 DUP9 ADD DUP12 DUP2 MSTORE PUSH1 0xA0 DUP10 ADD DUP15 DUP2 MSTORE PUSH1 0xC0 DUP11 ADD DUP6 SWAP1 MSTORE PUSH1 0xE0 DUP11 ADD DUP6 SWAP1 MSTORE PUSH2 0x100 DUP11 ADD DUP6 SWAP1 MSTORE PUSH2 0x120 DUP11 ADD DUP6 SWAP1 MSTORE SWAP7 DUP5 MSTORE PUSH1 0x2 SWAP5 DUP6 SWAP1 MSTORE SWAP9 SWAP1 SWAP3 KECCAK256 DUP8 MLOAD DUP2 SSTORE SWAP4 MLOAD SWAP6 DUP5 ADD DUP1 SLOAD PUSH1 0x1 PUSH1 0x1 PUSH1 0xA0 SHL SUB SWAP8 DUP9 AND PUSH1 0x1 PUSH1 0x1 PUSH1 0xA0 SHL SUB NOT SWAP2 DUP3 AND OR SWAP1 SWAP2 SSTORE SWAP1 MLOAD SWAP3 DUP5 ADD DUP1 SLOAD SWAP4 SWAP1 SWAP7 AND SWAP3 AND SWAP2 SWAP1 SWAP2 OR SWAP1 SWAP4 SSTORE SWAP2 MLOAD PUSH1 0x3 DUP4 ADD SSTORE SWAP3 MLOAD PUSH1 0x4 DUP3 ADD SSTORE SWAP2 MLOAD SWAP1 SWAP2 SWAP1 PUSH1 0x5 DUP3 ADD SWAP1 PUSH2 0x12A6 SWAP1 DUP3 PUSH2 0x1AD1 JUMP JUMPDEST POP PUSH1 0xC0 DUP3 ADD MLOAD PUSH1 0x6 DUP3 ADD DUP1 SLOAD PUSH1 0xFF NOT AND PUSH1 0x1 DUP4 PUSH1 0x4 DUP2 GT ISZERO PUSH2 0x12CA JUMPI PUSH2 0x12CA PUSH2 0x1683 JUMP JUMPDEST MUL OR SWAP1 SSTORE POP PUSH1 0xE0 DUP3 ADD MLOAD DUP2 PUSH1 0x7 ADD SSTORE PUSH2 0x100 DUP3 ADD MLOAD DUP2 PUSH1 0x8 ADD SSTORE PUSH2 0x120 DUP3 ADD MLOAD DUP2 PUSH1 0x9 ADD SSTORE SWAP1 POP POP CALLER PUSH1 0x1 PUSH1 0x1 PUSH1 0xA0 SHL SUB AND PUSH1 0x1 SLOAD PUSH32 0xE1C2078C29A65ADA61730619230273D978ED51CCEFC8B1F794CA5EF19D75B99B DUP7 PUSH1 0x40 MLOAD PUSH2 0x132E SWAP2 SWAP1 PUSH2 0x1B91 JUMP JUMPDEST PUSH1 0x40 MLOAD DUP1 SWAP2 SUB SWAP1 LOG3 POP PUSH1 0x1 SLOAD SWAP4 SWAP3 POP POP POP JUMP JUMPDEST PUSH2 0x1349 PUSH2 0x139D JUMP JUMPDEST PUSH1 0x1 PUSH1 0x1 PUSH1 0xA0 SHL SUB DUP2 AND PUSH2 0x1378 JUMPI PUSH1 0x40 MLOAD PUSH4 0x1E4FBDF7 PUSH1 0xE0 SHL DUP2 MSTORE PUSH1 0x0 PUSH1 0x4 DUP3 ADD MSTORE PUSH1 0x24 ADD JUMPDEST PUSH1 0x40 MLOAD DUP1 SWAP2 SUB SWAP1 REVERT JUMPDEST PUSH2 0x974 DUP2 PUSH2 0x13CA JUMP JUMPDEST PUSH2 0x1389 PUSH2 0x15AF JUMP JUMPDEST PUSH1 0x2 PUSH1 0x0 DUP1 MLOAD PUSH1 0x20 PUSH2 0x1BA5 DUP4 CODECOPY DUP2 MLOAD SWAP2 MSTORE SSTORE JUMP JUMPDEST PUSH1 0x0 SLOAD PUSH1 0x1 PUSH1 0x1 PUSH1 0xA0 SHL SUB AND CALLER EQ PUSH2 0xB89 JUMPI PUSH1 0x40 MLOAD PUSH4 0x118CDAA7 PUSH1 0xE0 SHL DUP2 MSTORE CALLER PUSH1 0x4 DUP3 ADD MSTORE PUSH1 0x24 ADD PUSH2 0x136F JUMP JUMPDEST PUSH1 0x0 DUP1 SLOAD PUSH1 0x1 PUSH1 0x1 PUSH1 0xA0 SHL SUB DUP4 DUP2 AND PUSH1 0x1 PUSH1 0x1 PUSH1 0xA0 SHL SUB NOT DUP4 AND DUP2 OR DUP5 SSTORE PUSH1 0x40 MLOAD SWAP2 SWAP1 SWAP3 AND SWAP3 DUP4 SWAP2 PUSH32 0x8BE0079C531659141344CD1FD0A4F28419497F9722A3DAAFE3B4186F6B6457E0 SWAP2 SWAP1 LOG3 POP POP JUMP JUMPDEST PUSH1 0x4 SLOAD PUSH1 0x0 SWAP1 DUP2 DUP2 PUSH8 0xFFFFFFFFFFFFFFFF DUP2 GT ISZERO PUSH2 0x143A JUMPI PUSH2 0x143A PUSH2 0x1879 JUMP JUMPDEST PUSH1 0x40 MLOAD SWAP1 DUP1 DUP3 MSTORE DUP1 PUSH1 0x20 MUL PUSH1 0x20 ADD DUP3 ADD PUSH1 0x40 MSTORE DUP1 ISZERO PUSH2 0x1463 JUMPI DUP2 PUSH1 0x20 ADD PUSH1 0x20 DUP3 MUL DUP1 CALLDATASIZE DUP4 CALLDATACOPY ADD SWAP1 POP JUMPDEST POP SWAP1 POP PUSH1 0x0 DUP1 JUMPDEST DUP4 DUP2 LT ISZERO PUSH2 0x1508 JUMPI PUSH1 0x0 PUSH1 0x4 DUP3 DUP2 SLOAD DUP2 LT PUSH2 0x1487 JUMPI PUSH2 0x1487 PUSH2 0x1A54 JUMP JUMPDEST PUSH1 0x0 SWAP2 DUP3 MSTORE PUSH1 0x20 SWAP1 SWAP2 KECCAK256 ADD SLOAD PUSH1 0x1 PUSH1 0x1 PUSH1 0xA0 SHL SUB SWAP1 DUP2 AND SWAP2 POP DUP10 AND DUP2 EQ DUP1 ISZERO SWAP1 PUSH2 0x14C3 JUMPI POP DUP8 PUSH1 0x1 PUSH1 0x1 PUSH1 0xA0 SHL SUB AND DUP2 PUSH1 0x1 PUSH1 0x1 PUSH1 0xA0 SHL SUB AND EQ ISZERO JUMPDEST ISZERO PUSH2 0x14FF JUMPI DUP1 DUP5 DUP5 DUP2 MLOAD DUP2 LT PUSH2 0x14DB JUMPI PUSH2 0x14DB PUSH2 0x1A54 JUMP JUMPDEST PUSH1 0x1 PUSH1 0x1 PUSH1 0xA0 SHL SUB SWAP1 SWAP3 AND PUSH1 0x20 SWAP3 DUP4 MUL SWAP2 SWAP1 SWAP2 ADD SWAP1 SWAP2 ADD MSTORE PUSH2 0x14FC DUP4 PUSH2 0x19EA JUMP JUMPDEST SWAP3 POP JUMPDEST POP PUSH1 0x1 ADD PUSH2 0x146A JUMP JUMPDEST POP DUP1 PUSH1 0x0 SUB PUSH2 0x152A JUMPI PUSH1 0x40 MLOAD PUSH4 0x3E98EF23 PUSH1 0xE0 SHL DUP2 MSTORE PUSH1 0x4 ADD PUSH1 0x40 MLOAD DUP1 SWAP2 SUB SWAP1 REVERT JUMPDEST PUSH1 0x40 DUP1 MLOAD PREVRANDAO PUSH1 0x20 DUP3 ADD MSTORE TIMESTAMP SWAP2 DUP2 ADD SWAP2 SWAP1 SWAP2 MSTORE PUSH1 0x60 DUP1 DUP3 ADD DUP8 SWAP1 MSTORE CALLER SWAP1 SHL PUSH12 0xFFFFFFFFFFFFFFFFFFFFFFFF NOT AND PUSH1 0x80 DUP3 ADD MSTORE PUSH1 0x0 SWAP1 DUP3 SWAP1 PUSH1 0x94 ADD PUSH1 0x40 MLOAD PUSH1 0x20 DUP2 DUP4 SUB SUB DUP2 MSTORE SWAP1 PUSH1 0x40 MSTORE DUP1 MLOAD SWAP1 PUSH1 0x20 ADD KECCAK256 PUSH1 0x0 SHR PUSH2 0x1586 SWAP2 SWAP1 PUSH2 0x19D6 JUMP JUMPDEST SWAP1 POP DUP3 DUP2 DUP2 MLOAD DUP2 LT PUSH2 0x159A JUMPI PUSH2 0x159A PUSH2 0x1A54 JUMP JUMPDEST PUSH1 0x20 MUL PUSH1 0x20 ADD ADD MLOAD SWAP5 POP POP POP POP POP SWAP4 SWAP3 POP POP POP JUMP JUMPDEST PUSH1 0x0 DUP1 MLOAD PUSH1 0x20 PUSH2 0x1BA5 DUP4 CODECOPY DUP2 MLOAD SWAP2 MSTORE SLOAD PUSH1 0x2 SUB PUSH2 0xB89 JUMPI PUSH1 0x40 MLOAD PUSH4 0x3EE5AEB5 PUSH1 0xE0 SHL DUP2 MSTORE PUSH1 0x4 ADD PUSH1 0x40 MLOAD DUP1 SWAP2 SUB SWAP1 REVERT JUMPDEST PUSH1 0x1 PUSH1 0x1 PUSH1 0xA0 SHL SUB DUP2 AND DUP2 EQ PUSH2 0x974 JUMPI PUSH1 0x0 DUP1 REVERT JUMPDEST PUSH1 0x0 DUP1 PUSH1 0x40 DUP4 DUP6 SUB SLT ISZERO PUSH2 0x1607 JUMPI PUSH1 0x0 DUP1 REVERT JUMPDEST DUP3 CALLDATALOAD SWAP2 POP PUSH1 0x20 DUP4 ADD CALLDATALOAD PUSH2 0x1619 DUP2 PUSH2 0x15DF JUMP JUMPDEST DUP1 SWAP2 POP POP SWAP3 POP SWAP3 SWAP1 POP JUMP JUMPDEST PUSH1 0x0 PUSH1 0x20 DUP3 DUP5 SUB SLT ISZERO PUSH2 0x1636 JUMPI PUSH1 0x0 DUP1 REVERT JUMPDEST POP CALLDATALOAD SWAP2 SWAP1 POP JUMP JUMPDEST PUSH1 0x0 DUP2 MLOAD DUP1 DUP5 MSTORE PUSH1 0x0 JUMPDEST DUP2 DUP2 LT ISZERO PUSH2 0x1663 JUMPI PUSH1 0x20 DUP2 DUP6 ADD DUP2 ADD MLOAD DUP7 DUP4 ADD DUP3 ADD MSTORE ADD PUSH2 0x1647 JUMP JUMPDEST POP PUSH1 0x0 PUSH1 0x20 DUP3 DUP7 ADD ADD MSTORE PUSH1 0x20 PUSH1 0x1F NOT PUSH1 0x1F DUP4 ADD AND DUP6 ADD ADD SWAP2 POP POP SWAP3 SWAP2 POP POP JUMP JUMPDEST PUSH4 0x4E487B71 PUSH1 0xE0 SHL PUSH1 0x0 MSTORE PUSH1 0x21 PUSH1 0x4 MSTORE PUSH1 0x24 PUSH1 0x0 REVERT JUMPDEST PUSH1 0x5 DUP2 LT PUSH2 0x16B7 JUMPI PUSH4 0x4E487B71 PUSH1 0xE0 SHL PUSH1 0x0 MSTORE PUSH1 0x21 PUSH1 0x4 MSTORE PUSH1 0x24 PUSH1 0x0 REVERT JUMPDEST SWAP1 MSTORE JUMP JUMPDEST PUSH1 0x20 DUP2 MSTORE DUP2 MLOAD PUSH1 0x20 DUP3 ADD MSTORE PUSH1 0x0 PUSH1 0x20 DUP4 ADD MLOAD PUSH2 0x16E2 PUSH1 0x40 DUP5 ADD DUP3 PUSH1 0x1 PUSH1 0x1 PUSH1 0xA0 SHL SUB AND SWAP1 MSTORE JUMP JUMPDEST POP PUSH1 0x40 DUP4 ADD MLOAD PUSH1 0x1 PUSH1 0x1 PUSH1 0xA0 SHL SUB DUP2 AND PUSH1 0x60 DUP5 ADD MSTORE POP PUSH1 0x60 DUP4 ADD MLOAD PUSH1 0x80 DUP4 ADD MSTORE PUSH1 0x80 DUP4 ADD MLOAD PUSH1 0xA0 DUP4 ADD MSTORE PUSH1 0xA0 DUP4 ADD MLOAD PUSH2 0x140 DUP1 PUSH1 0xC0 DUP6 ADD MSTORE PUSH2 0x1728 PUSH2 0x160 DUP6 ADD DUP4 PUSH2 0x163D JUMP JUMPDEST SWAP2 POP PUSH1 0xC0 DUP6 ADD MLOAD PUSH2 0x173C PUSH1 0xE0 DUP7 ADD DUP3 PUSH2 0x1699 JUMP JUMPDEST POP PUSH1 0xE0 DUP6 ADD MLOAD PUSH2 0x100 DUP6 DUP2 ADD SWAP2 SWAP1 SWAP2 MSTORE DUP6 ADD MLOAD PUSH2 0x120 DUP1 DUP7 ADD SWAP2 SWAP1 SWAP2 MSTORE SWAP1 SWAP5 ADD MLOAD SWAP4 SWAP1 SWAP3 ADD SWAP3 SWAP1 SWAP3 MSTORE SWAP2 SWAP1 POP JUMP JUMPDEST PUSH1 0x20 DUP1 DUP3 MSTORE DUP3 MLOAD DUP3 DUP3 ADD DUP2 SWAP1 MSTORE PUSH1 0x0 SWAP2 SWAP1 DUP5 DUP3 ADD SWAP1 PUSH1 0x40 DUP6 ADD SWAP1 DUP5 JUMPDEST DUP2 DUP2 LT ISZERO PUSH2 0x17AB JUMPI DUP4 MLOAD PUSH1 0x1 PUSH1 0x1 PUSH1 0xA0 SHL SUB AND DUP4 MSTORE SWAP3 DUP5 ADD SWAP3 SWAP2 DUP5 ADD SWAP2 PUSH1 0x1 ADD PUSH2 0x1786 JUMP JUMPDEST POP SWAP1 SWAP7 SWAP6 POP POP POP POP POP POP JUMP JUMPDEST PUSH1 0x0 DUP1 PUSH1 0x40 DUP4 DUP6 SUB SLT ISZERO PUSH2 0x17CA JUMPI PUSH1 0x0 DUP1 REVERT JUMPDEST DUP3 CALLDATALOAD SWAP2 POP PUSH1 0x20 DUP4 ADD CALLDATALOAD DUP1 ISZERO ISZERO DUP2 EQ PUSH2 0x1619 JUMPI PUSH1 0x0 DUP1 REVERT JUMPDEST PUSH1 0x0 PUSH1 0x20 DUP3 DUP5 SUB SLT ISZERO PUSH2 0x17F3 JUMPI PUSH1 0x0 DUP1 REVERT JUMPDEST DUP2 CALLDATALOAD PUSH2 0x17FE DUP2 PUSH2 0x15DF JUMP JUMPDEST SWAP4 SWAP3 POP POP POP JUMP JUMPDEST DUP11 DUP2 MSTORE PUSH1 0x1 PUSH1 0x1 PUSH1 0xA0 SHL SUB DUP11 DUP2 AND PUSH1 0x20 DUP4 ADD MSTORE DUP10 AND PUSH1 0x40 DUP3 ADD MSTORE PUSH1 0x60 DUP2 ADD DUP9 SWAP1 MSTORE PUSH1 0x80 DUP2 ADD DUP8 SWAP1 MSTORE PUSH2 0x140 PUSH1 0xA0 DUP3 ADD DUP2 SWAP1 MSTORE PUSH1 0x0 SWAP1 PUSH2 0x1846 DUP4 DUP3 ADD DUP10 PUSH2 0x163D JUMP JUMPDEST SWAP2 POP POP PUSH2 0x1856 PUSH1 0xC0 DUP4 ADD DUP8 PUSH2 0x1699 JUMP JUMPDEST DUP5 PUSH1 0xE0 DUP4 ADD MSTORE DUP4 PUSH2 0x100 DUP4 ADD MSTORE DUP3 PUSH2 0x120 DUP4 ADD MSTORE SWAP12 SWAP11 POP POP POP POP POP POP POP POP POP POP POP JUMP JUMPDEST PUSH4 0x4E487B71 PUSH1 0xE0 SHL PUSH1 0x0 MSTORE PUSH1 0x41 PUSH1 0x4 MSTORE PUSH1 0x24 PUSH1 0x0 REVERT JUMPDEST PUSH1 0x0 DUP1 PUSH1 0x0 PUSH1 0x60 DUP5 DUP7 SUB SLT ISZERO PUSH2 0x18A4 JUMPI PUSH1 0x0 DUP1 REVERT JUMPDEST DUP4 CALLDATALOAD PUSH8 0xFFFFFFFFFFFFFFFF DUP1 DUP3 GT ISZERO PUSH2 0x18BC JUMPI PUSH1 0x0 DUP1 REVERT JUMPDEST DUP2 DUP7 ADD SWAP2 POP DUP7 PUSH1 0x1F DUP4 ADD SLT PUSH2 0x18D0 JUMPI PUSH1 0x0 DUP1 REVERT JUMPDEST DUP2 CALLDATALOAD DUP2 DUP2 GT ISZERO PUSH2 0x18E2 JUMPI PUSH2 0x18E2 PUSH2 0x1879 JUMP JUMPDEST PUSH1 0x40 MLOAD PUSH1 0x1F DUP3 ADD PUSH1 0x1F NOT SWAP1 DUP2 AND PUSH1 0x3F ADD AND DUP2 ADD SWAP1 DUP4 DUP3 GT DUP2 DUP4 LT OR ISZERO PUSH2 0x190A JUMPI PUSH2 0x190A PUSH2 0x1879 JUMP JUMPDEST DUP2 PUSH1 0x40 MSTORE DUP3 DUP2 MSTORE DUP10 PUSH1 0x20 DUP5 DUP8 ADD ADD GT ISZERO PUSH2 0x1923 JUMPI PUSH1 0x0 DUP1 REVERT JUMPDEST DUP3 PUSH1 0x20 DUP7 ADD PUSH1 0x20 DUP4 ADD CALLDATACOPY PUSH1 0x0 PUSH1 0x20 DUP5 DUP4 ADD ADD MSTORE DUP1 SWAP8 POP POP POP POP POP POP PUSH1 0x20 DUP5 ADD CALLDATALOAD SWAP2 POP PUSH1 0x40 DUP5 ADD CALLDATALOAD SWAP1 POP SWAP3 POP SWAP3 POP SWAP3 JUMP JUMPDEST PUSH4 0x4E487B71 PUSH1 0xE0 SHL PUSH1 0x0 MSTORE PUSH1 0x11 PUSH1 0x4 MSTORE PUSH1 0x24 PUSH1 0x0 REVERT JUMPDEST DUP1 DUP3 ADD DUP1 DUP3 GT ISZERO PUSH2 0x197C JUMPI PUSH2 0x197C PUSH2 0x1953 JUMP JUMPDEST SWAP3 SWAP2 POP POP JUMP JUMPDEST PUSH1 0x0 DUP2 PUSH2 0x1991 JUMPI PUSH2 0x1991 PUSH2 0x1953 JUMP JUMPDEST POP PUSH1 0x0 NOT ADD SWAP1 JUMP JUMPDEST DUP2 DUP2 SUB DUP2 DUP2 GT ISZERO PUSH2 0x197C JUMPI PUSH2 0x197C PUSH2 0x1953 JUMP JUMPDEST PUSH4 0x4E487B71 PUSH1 0xE0 SHL PUSH1 0x0 MSTORE PUSH1 0x12 PUSH1 0x4 MSTORE PUSH1 0x24 PUSH1 0x0 REVERT JUMPDEST PUSH1 0x0 DUP3 PUSH2 0x19D1 JUMPI PUSH2 0x19D1 PUSH2 0x19AC JUMP JUMPDEST POP DIV SWAP1 JUMP JUMPDEST PUSH1 0x0 DUP3 PUSH2 0x19E5 JUMPI PUSH2 0x19E5 PUSH2 0x19AC JUMP JUMPDEST POP MOD SWAP1 JUMP JUMPDEST PUSH1 0x0 PUSH1 0x1 DUP3 ADD PUSH2 0x19FC JUMPI PUSH2 0x19FC PUSH2 0x1953 JUMP JUMPDEST POP PUSH1 0x1 ADD SWAP1 JUMP JUMPDEST DUP1 DUP3 MUL DUP2 ISZERO DUP3 DUP3 DIV DUP5 EQ OR PUSH2 0x197C JUMPI PUSH2 0x197C PUSH2 0x1953 JUMP JUMPDEST PUSH1 0x1 DUP2 DUP2 SHR SWAP1 DUP3 AND DUP1 PUSH2 0x1A2E JUMPI PUSH1 0x7F DUP3 AND SWAP2 POP JUMPDEST PUSH1 0x20 DUP3 LT DUP2 SUB PUSH2 0x1A4E JUMPI PUSH4 0x4E487B71 PUSH1 0xE0 SHL PUSH1 0x0 MSTORE PUSH1 0x22 PUSH1 0x4 MSTORE PUSH1 0x24 PUSH1 0x0 REVERT JUMPDEST POP SWAP2 SWAP1 POP JUMP JUMPDEST PUSH4 0x4E487B71 PUSH1 0xE0 SHL PUSH1 0x0 MSTORE PUSH1 0x32 PUSH1 0x4 MSTORE PUSH1 0x24 PUSH1 0x0 REVERT JUMPDEST PUSH4 0x4E487B71 PUSH1 0xE0 SHL PUSH1 0x0 MSTORE PUSH1 0x31 PUSH1 0x4 MSTORE PUSH1 0x24 PUSH1 0x0 REVERT JUMPDEST PUSH1 0x1F DUP3 GT ISZERO PUSH2 0x1ACC JUMPI PUSH1 0x0 DUP2 PUSH1 0x0 MSTORE PUSH1 0x20 PUSH1 0x0 KECCAK256 PUSH1 0x1F DUP6 ADD PUSH1 0x5 SHR DUP2 ADD PUSH1 0x20 DUP7 LT ISZERO PUSH2 0x1AA9 JUMPI POP DUP1 JUMPDEST PUSH1 0x1F DUP6 ADD PUSH1 0x5 SHR DUP3 ADD SWAP2 POP JUMPDEST DUP2 DUP2 LT ISZERO PUSH2 0x1AC8 JUMPI DUP3 DUP2 SSTORE PUSH1 0x1 ADD PUSH2 0x1AB5 JUMP JUMPDEST POP POP POP JUMPDEST POP POP POP JUMP JUMPDEST DUP2 MLOAD PUSH8 0xFFFFFFFFFFFFFFFF DUP2 GT ISZERO PUSH2 0x1AEB JUMPI PUSH2 0x1AEB PUSH2 0x1879 JUMP JUMPDEST PUSH2 0x1AFF DUP2 PUSH2 0x1AF9 DUP5 SLOAD PUSH2 0x1A1A JUMP JUMPDEST DUP5 PUSH2 0x1A80 JUMP JUMPDEST PUSH1 0x20 DUP1 PUSH1 0x1F DUP4 GT PUSH1 0x1 DUP2 EQ PUSH2 0x1B34 JUMPI PUSH1 0x0 DUP5 ISZERO PUSH2 0x1B1C JUMPI POP DUP6 DUP4 ADD MLOAD JUMPDEST PUSH1 0x0 NOT PUSH1 0x3 DUP7 SWAP1 SHL SHR NOT AND PUSH1 0x1 DUP6 SWAP1 SHL OR DUP6 SSTORE PUSH2 0x1AC8 JUMP JUMPDEST PUSH1 0x0 DUP6 DUP2 MSTORE PUSH1 0x20 DUP2 KECCAK256 PUSH1 0x1F NOT DUP7 AND SWAP2 JUMPDEST DUP3 DUP2 LT ISZERO PUSH2 0x1B63 JUMPI DUP9 DUP7 ADD MLOAD DUP3 SSTORE SWAP5 DUP5 ADD SWAP5 PUSH1 0x1 SWAP1 SWAP2 ADD SWAP1 DUP5 ADD PUSH2 0x1B44 JUMP JUMPDEST POP DUP6 DUP3 LT ISZERO PUSH2 0x1B81 JUMPI DUP8 DUP6 ADD MLOAD PUSH1 0x0 NOT PUSH1 0x3 DUP9 SWAP1 SHL PUSH1 0xF8 AND SHR NOT AND DUP2 SSTORE JUMPDEST POP POP POP POP POP PUSH1 0x1 SWAP1 DUP2 SHL ADD SWAP1 SSTORE POP JUMP JUMPDEST PUSH1 0x20 DUP2 MSTORE PUSH1 0x0 PUSH2 0x17FE PUSH1 0x20 DUP4 ADD DUP5 PUSH2 0x163D JUMP INVALID SWAP12 PUSH24 0x9B17422D0DF92223018B32B4D1FA46E071723D6817E2486D STOP EXTCODESIZE 0xEC 0xC5 PUSH0 STOP LOG2 PUSH5 0x6970667358 0x22 SLT KECCAK256 CALLER 0xBE SHR 0xD6 0x26 OR PUSH16 0x474DDB4A0D7E03B86C42D18F18F69D3D DUP11 SWAP8 PUSH26 0xC43DD688B95764736F6C63430008180033000000000000000000 "},"methodIdentifiers":{"MAX_ACTIVE_RENTALS()":"de2ad1ce","STANDARD_RENTAL_PERIOD()":"64a40f80","activeRentals(address)":"f578470c","arbitratorPool(uint256)":"e86c2457","assignedArbitrator(uint256)":"7fe2372c","confirmReturn(uint256)":"2e5df6e3","getArbitratorCount()":"1923c96f","getArbitratorPool()":"3fbb277c","getItem(uint256)":"3129e773","isArbitrator(address)":"9f6bd2a9","itemCounter()":"6d6d00ed","items(uint256)":"bfb231d2","listItem(string,uint256,uint256)":"f1766279","owner()":"8da5cb5b","raiseDispute(uint256)":"a5c1674e","registerAsArbitrator()":"ebc8c500","renounceOwnership()":"715018a6","rentItem(uint256,bool)":"82520ee8","resolveDispute(uint256,address)":"0e33599d","returnItem(uint256)":"223ed1dd","transferOwnership(address)":"f2fde38b","unregisterAsArbitrator()":"a1e4f4bc"}}}}}