{
  "_format": "hh-sol-artifact-1",
  "contractName": "BookRental",
  "sourceName": "contracts/BookRental.sol",
  "abi": [
    {
      "inputs": [
        {
          "internalType": "address",
          "name": "_arbitrator",
          "type": "address"
        }
      ],
      "stateMutability": "nonpayable",
      "type": "constructor"
    },
    {
      "inputs": [],
      "name": "BookRental__CannotRentOwnItem",
      "type": "error"
    },
    {
      "inputs": [],
      "name": "BookRental__DepositTooLow",
      "type": "error"
    },
    {
      "inputs": [],
      "name": "BookRental__IPFSCIDRequired",
      "type": "error"
    },
    {
      "inputs": [],
      "name": "BookRental__InsufficientPayment",
      "type": "error"
    },
    {
      "inputs": [],
      "name": "BookRental__InvalidPrice",
      "type": "error"
    },
    {
      "inputs": [],
      "name": "BookRental__InvalidStatus",
      "type": "error"
    },
    {
      "inputs": [],
      "name": "BookRental__NotArbitrator",
      "type": "error"
    },
    {
      "inputs": [],
      "name": "BookRental__NotItemOwner",
      "type": "error"
    },
    {
      "inputs": [],
      "name": "BookRental__NotRenter",
      "type": "error"
    },
    {
      "inputs": [],
      "name": "BookRental__Unauthorized",
      "type": "error"
    },
    {
      "inputs": [
        {
          "internalType": "address",
          "name": "owner",
          "type": "address"
        }
      ],
      "name": "OwnableInvalidOwner",
      "type": "error"
    },
    {
      "inputs": [
        {
          "internalType": "address",
          "name": "account",
          "type": "address"
        }
      ],
      "name": "OwnableUnauthorizedAccount",
      "type": "error"
    },
    {
      "inputs": [],
      "name": "ReentrancyGuardReentrantCall",
      "type": "error"
    },
    {
      "anonymous": false,
      "inputs": [
        {
          "indexed": true,
          "internalType": "uint256",
          "name": "itemId",
          "type": "uint256"
        },
        {
          "indexed": true,
          "internalType": "address",
          "name": "renter",
          "type": "address"
        }
      ],
      "name": "DisputeRaised",
      "type": "event"
    },
    {
      "anonymous": false,
      "inputs": [
        {
          "indexed": true,
          "internalType": "uint256",
          "name": "itemId",
          "type": "uint256"
        },
        {
          "indexed": true,
          "internalType": "address",
          "name": "winner",
          "type": "address"
        }
      ],
      "name": "DisputeResolved",
      "type": "event"
    },
    {
      "anonymous": false,
      "inputs": [
        {
          "indexed": true,
          "internalType": "uint256",
          "name": "itemId",
          "type": "uint256"
        },
        {
          "indexed": true,
          "internalType": "address",
          "name": "owner",
          "type": "address"
        },
        {
          "indexed": false,
          "internalType": "string",
          "name": "ipfsCID",
          "type": "string"
        }
      ],
      "name": "ItemListed",
      "type": "event"
    },
    {
      "anonymous": false,
      "inputs": [
        {
          "indexed": true,
          "internalType": "uint256",
          "name": "itemId",
          "type": "uint256"
        },
        {
          "indexed": true,
          "internalType": "address",
          "name": "renter",
          "type": "address"
        }
      ],
      "name": "ItemRented",
      "type": "event"
    },
    {
      "anonymous": false,
      "inputs": [
        {
          "indexed": true,
          "internalType": "uint256",
          "name": "itemId",
          "type": "uint256"
        },
        {
          "indexed": true,
          "internalType": "address",
          "name": "renter",
          "type": "address"
        }
      ],
      "name": "ItemReturned",
      "type": "event"
    },
    {
      "anonymous": false,
      "inputs": [
        {
          "indexed": true,
          "internalType": "address",
          "name": "previousOwner",
          "type": "address"
        },
        {
          "indexed": true,
          "internalType": "address",
          "name": "newOwner",
          "type": "address"
        }
      ],
      "name": "OwnershipTransferred",
      "type": "event"
    },
    {
      "anonymous": false,
      "inputs": [
        {
          "indexed": true,
          "internalType": "uint256",
          "name": "itemId",
          "type": "uint256"
        },
        {
          "indexed": false,
          "internalType": "uint256",
          "name": "refundAmount",
          "type": "uint256"
        }
      ],
      "name": "ReturnConfirmed",
      "type": "event"
    },
    {
      "inputs": [],
      "name": "arbitrator",
      "outputs": [
        {
          "internalType": "address",
          "name": "",
          "type": "address"
        }
      ],
      "stateMutability": "view",
      "type": "function"
    },
    {
      "inputs": [
        {
          "internalType": "uint256",
          "name": "_itemId",
          "type": "uint256"
        }
      ],
      "name": "confirmReturn",
      "outputs": [],
      "stateMutability": "nonpayable",
      "type": "function"
    },
    {
      "inputs": [
        {
          "internalType": "uint256",
          "name": "_itemId",
          "type": "uint256"
        }
      ],
      "name": "getItem",
      "outputs": [
        {
          "components": [
            {
              "internalType": "uint256",
              "name": "itemId",
              "type": "uint256"
            },
            {
              "internalType": "address payable",
              "name": "owner",
              "type": "address"
            },
            {
              "internalType": "address payable",
              "name": "renter",
              "type": "address"
            },
            {
              "internalType": "uint256",
              "name": "pricePerDay",
              "type": "uint256"
            },
            {
              "internalType": "uint256",
              "name": "depositAmount",
              "type": "uint256"
            },
            {
              "internalType": "string",
              "name": "ipfsCID",
              "type": "string"
            },
            {
              "internalType": "enum BookRental.Status",
              "name": "status",
              "type": "uint8"
            },
            {
              "internalType": "uint256",
              "name": "rentedAt",
              "type": "uint256"
            },
            {
              "internalType": "uint256",
              "name": "returnedAt",
              "type": "uint256"
            },
            {
              "internalType": "uint256",
              "name": "disputeRaisedAt",
              "type": "uint256"
            }
          ],
          "internalType": "struct BookRental.Item",
          "name": "",
          "type": "tuple"
        }
      ],
      "stateMutability": "view",
      "type": "function"
    },
    {
      "inputs": [
        {
          "internalType": "uint256",
          "name": "",
          "type": "uint256"
        }
      ],
      "name": "items",
      "outputs": [
        {
          "internalType": "uint256",
          "name": "itemId",
          "type": "uint256"
        },
        {
          "internalType": "address payable",
          "name": "owner",
          "type": "address"
        },
        {
          "internalType": "address payable",
          "name": "renter",
          "type": "address"
        },
        {
          "internalType": "uint256",
          "name": "pricePerDay",
          "type": "uint256"
        },
        {
          "internalType": "uint256",
          "name": "depositAmount",
          "type": "uint256"
        },
        {
          "internalType": "string",
          "name": "ipfsCID",
          "type": "string"
        },
        {
          "internalType": "enum BookRental.Status",
          "name": "status",
          "type": "uint8"
        },
        {
          "internalType": "uint256",
          "name": "rentedAt",
          "type": "uint256"
        },
        {
          "internalType": "uint256",
          "name": "returnedAt",
          "type": "uint256"
        },
        {
          "internalType": "uint256",
          "name": "disputeRaisedAt",
          "type": "uint256"
        }
      ],
      "stateMutability": "view",
      "type": "function"
    },
    {
      "inputs": [
        {
          "internalType": "string",
          "name": "_ipfsCID",
          "type": "string"
        },
        {
          "internalType": "uint256",
          "name": "_pricePerDay",
          "type": "uint256"
        },
        {
          "internalType": "uint256",
          "name": "_depositAmount",
          "type": "uint256"
        }
      ],
      "name": "listItem",
      "outputs": [
        {
          "internalType": "uint256",
          "name": "",
          "type": "uint256"
        }
      ],
      "stateMutability": "nonpayable",
      "type": "function"
    },
    {
      "inputs": [],
      "name": "owner",
      "outputs": [
        {
          "internalType": "address",
          "name": "",
          "type": "address"
        }
      ],
      "stateMutability": "view",
      "type": "function"
    },
    {
      "inputs": [
        {
          "internalType": "uint256",
          "name": "_itemId",
          "type": "uint256"
        }
      ],
      "name": "raiseDispute",
      "outputs": [],
      "stateMutability": "nonpayable",
      "type": "function"
    },
    {
      "inputs": [],
      "name": "renounceOwnership",
      "outputs": [],
      "stateMutability": "nonpayable",
      "type": "function"
    },
    {
      "inputs": [
        {
          "internalType": "uint256",
          "name": "_itemId",
          "type": "uint256"
        }
      ],
      "name": "rentItem",
      "outputs": [],
      "stateMutability": "payable",
      "type": "function"
    },
    {
      "inputs": [
        {
          "internalType": "uint256",
          "name": "_itemId",
          "type": "uint256"
        },
        {
          "internalType": "address payable",
          "name": "_winner",
          "type": "address"
        }
      ],
      "name": "resolveDispute",
      "outputs": [],
      "stateMutability": "nonpayable",
      "type": "function"
    },
    {
      "inputs": [
        {
          "internalType": "uint256",
          "name": "_itemId",
          "type": "uint256"
        }
      ],
      "name": "returnItem",
      "outputs": [],
      "stateMutability": "nonpayable",
      "type": "function"
    },
    {
      "inputs": [
        {
          "internalType": "address",
          "name": "newOwner",
          "type": "address"
        }
      ],
      "name": "transferOwnership",
      "outputs": [],
      "stateMutability": "nonpayable",
      "type": "function"
    }
  ],
  "bytecode": "0x608060405234801561001057600080fd5b506040516114e63803806114e683398101604081905261002f916100f8565b60017f9b779b17422d0df92223018b32b4d1fa46e071723d6817e2486d003becc55f0055338061007957604051631e4fbdf760e01b81526000600482015260240160405180910390fd5b610082816100a8565b50600280546001600160a01b0319166001600160a01b0392909216919091179055610128565b600080546001600160a01b038381166001600160a01b0319831681178455604051919092169283917f8be0079c531659141344cd1fd0a4f28419497f9722a3daafe3b4186f6b6457e09190a35050565b60006020828403121561010a57600080fd5b81516001600160a01b038116811461012157600080fd5b9392505050565b6113af806101376000396000f3fe6080604052600436106100a75760003560e01c80638da5cb5b116100645780638da5cb5b14610191578063a5c1674e146101af578063bfb231d2146101cf578063d78d385214610205578063f176627914610218578063f2fde38b1461024657600080fd5b80630e33599d146100ac578063223ed1dd146100ce5780632e5df6e3146100ee5780633129e7731461010e5780636cc6cde114610144578063715018a61461017c575b600080fd5b3480156100b857600080fd5b506100cc6100c7366004610e63565b610266565b005b3480156100da57600080fd5b506100cc6100e9366004610e93565b6103a3565b3480156100fa57600080fd5b506100cc610109366004610e93565b61045d565b34801561011a57600080fd5b5061012e610129366004610e93565b6106c7565b60405161013b9190610f2a565b60405180910390f35b34801561015057600080fd5b50600254610164906001600160a01b031681565b6040516001600160a01b03909116815260200161013b565b34801561018857600080fd5b506100cc610865565b34801561019d57600080fd5b506000546001600160a01b0316610164565b3480156101bb57600080fd5b506100cc6101ca366004610e93565b610879565b3480156101db57600080fd5b506101ef6101ea366004610e93565b61094e565b60405161013b9a99989796959493929190610fd9565b6100cc610213366004610e93565b610a38565b34801561022457600080fd5b50610238610233366004611063565b610b6a565b60405190815260200161013b565b34801561025257600080fd5b506100cc610261366004611127565b610d45565b6002546001600160a01b03163314610291576040516307d512d560e41b815260040160405180910390fd5b610299610d85565b600082815260036020819052604090912090600682015460ff1660048111156102c4576102c4610ef2565b146102e2576040516337a2c47760e21b815260040160405180910390fd5b6000816003015482600401546102f89190611161565b60068301805460ff191690556002830180546001600160a01b03191690556040519091506001600160a01b038416906108fc8315029083906000818181858888f1935050505015801561034f573d6000803e3d6000fd5b506040516001600160a01b0384169085907ff77ceb5e091d2da041bc760667f9d5fe7a756949eaf29250ad0e60ca6f4c27d990600090a3505061039f600160008051602061135a83398151915255565b5050565b60008181526003602052604090206001600682015460ff1660048111156103cc576103cc610ef2565b146103ea576040516337a2c47760e21b815260040160405180910390fd5b60028101546001600160a01b03163314610417576040516359b703af60e01b815260040160405180910390fd5b60068101805460ff19166002179055426008820155604051339083907fc3193e818cdb299f699a8ae99c460279d0de3b72ce9331e279a52515bb5aca9f90600090a35050565b610465610d85565b60008181526003602052604090206002600682015460ff16600481111561048e5761048e610ef2565b146104ac576040516337a2c47760e21b815260040160405180910390fd5b60018101546001600160a01b031633148015906104d9575060088101546104d6906202a300611161565b42105b156104f7576040516363c9d95b60e01b815260040160405180910390fd5b60008160070154826008015461050d919061117a565b9050600061051e62015180836111a3565b9050600061052f62015180846111b7565b1115610543578061053f816111cb565b9150505b8060000361054f575060015b60006001821161056057600061056b565b61056b60018361117a565b9050600084600301548261057f91906111e4565b9050600080866004015483106105ae5760009150866003015487600401546105a79190611161565b90506105d3565b8287600401546105be919061117a565b91508287600301546105d09190611161565b90505b60068701805460ff191690556002870180546001600160a01b0319811690915560018801546040516001600160a01b03928316929091169083156108fc029084906000818181858888f19350505050158015610633573d6000803e3d6000fd5b506040516001600160a01b0382169084156108fc029085906000818181858888f1935050505015801561066a573d6000803e3d6000fd5b50887fb2c4110a20d27fd2a835295123d67e5f9434fe1cb3c3133245b909ea88a80c9d8460405161069d91815260200190565b60405180910390a250505050505050506106c4600160008051602061135a83398151915255565b50565b61071c604080516101408101825260008082526020820181905291810182905260608082018390526080820183905260a08201529060c082019081526020016000815260200160008152602001600081525090565b6000828152600360208181526040928390208351610140810185528154815260018201546001600160a01b03908116938201939093526002820154909216938201939093529082015460608201526004820154608082015260058201805491929160a08401919061078c906111fb565b80601f01602080910402602001604051908101604052809291908181526020018280546107b8906111fb565b80156108055780601f106107da57610100808354040283529160200191610805565b820191906000526020600020905b8154815290600101906020018083116107e857829003601f168201915b5050509183525050600682015460209091019060ff16600481111561082c5761082c610ef2565b600481111561083d5761083d610ef2565b8152600782015460208201526008820154604082015260099091015460609091015292915050565b61086d610da1565b6108776000610dce565b565b60008181526003602052604090206002600682015460ff1660048111156108a2576108a2610ef2565b146108c0576040516337a2c47760e21b815260040160405180910390fd5b60028101546001600160a01b031633148015906108ea575060018101546001600160a01b03163314155b1561090857604051636e14c4dd60e11b815260040160405180910390fd5b60068101805460ff19166003179055426009820155604051339083907f84a477df8a28a4276ca6dee4458a06c3015f30c477d9c949ede4e13ff8a552b490600090a35050565b600360208190526000918252604090912080546001820154600283015493830154600484015460058501805494966001600160a01b039485169694169492939192610998906111fb565b80601f01602080910402602001604051908101604052809291908181526020018280546109c4906111fb565b8015610a115780601f106109e657610100808354040283529160200191610a11565b820191906000526020600020905b8154815290600101906020018083116109f457829003601f168201915b50505050600683015460078401546008850154600990950154939460ff909216939092508a565b610a40610d85565b600081815260036020526040812090600682015460ff166004811115610a6857610a68610ef2565b14610a86576040516337a2c47760e21b815260040160405180910390fd5b60018101546001600160a01b03163303610ab357604051633205115960e21b815260040160405180910390fd5b600081600301548260040154610ac99190611161565b905080341015610aec57604051637589333160e11b815260040160405180910390fd5b60068201805460ff19166001179055600282018054336001600160a01b031990911681179091554260078401556000600884018190556009840181905560405185917f60a8ad5021d41afc35cad1dcad49a375a37f3d9c05c95bdf82d653ae99869a0c91a350506106c4600160008051602061135a83398151915255565b6000610b74610da1565b8351600003610b9657604051631a2da5df60e21b815260040160405180910390fd5b82600003610bb757604051636be8f68360e01b815260040160405180910390fd5b82821015610bd8576040516307ae42cd60e41b815260040160405180910390fd5b600160008154610be7906111cb565b909155506040805161014081018252600180548083523360208085019182526000858701818152606087018b8152608088018b815260a089018e815260c08a0185905260e08a018590526101008a018590526101208a018590529684526003948590529890922087518155935195840180546001600160a01b039788166001600160a01b0319918216179091559051600285018054919097169116179094559251928101929092559251600482015591519091906005820190610caa9082611286565b5060c082015160068201805460ff19166001836004811115610cce57610cce610ef2565b021790555060e0820151816007015561010082015181600801556101208201518160090155905050336001600160a01b03166001547fe1c2078c29a65ada61730619230273d978ed51ccefc8b1f794ca5ef19d75b99b86604051610d329190611346565b60405180910390a3506001549392505050565b610d4d610da1565b6001600160a01b038116610d7c57604051631e4fbdf760e01b8152600060048201526024015b60405180910390fd5b6106c481610dce565b610d8d610e1e565b600260008051602061135a83398151915255565b6000546001600160a01b031633146108775760405163118cdaa760e01b8152336004820152602401610d73565b600080546001600160a01b038381166001600160a01b0319831681178455604051919092169283917f8be0079c531659141344cd1fd0a4f28419497f9722a3daafe3b4186f6b6457e09190a35050565b60008051602061135a8339815191525460020361087757604051633ee5aeb560e01b815260040160405180910390fd5b6001600160a01b03811681146106c457600080fd5b60008060408385031215610e7657600080fd5b823591506020830135610e8881610e4e565b809150509250929050565b600060208284031215610ea557600080fd5b5035919050565b6000815180845260005b81811015610ed257602081850181015186830182015201610eb6565b506000602082860101526020601f19601f83011685010191505092915050565b634e487b7160e01b600052602160045260246000fd5b60058110610f2657634e487b7160e01b600052602160045260246000fd5b9052565b602081528151602082015260006020830151610f5160408401826001600160a01b03169052565b5060408301516001600160a01b03811660608401525060608301516080830152608083015160a083015260a08301516101408060c0850152610f97610160850183610eac565b915060c0850151610fab60e0860182610f08565b5060e08501516101008581019190915285015161012080860191909152909401519390920192909252919050565b8a81526001600160a01b038a8116602083015289166040820152606081018890526080810187905261014060a0820181905260009061101a83820189610eac565b91505061102a60c0830187610f08565b8460e083015283610100830152826101208301529b9a5050505050505050505050565b634e487b7160e01b600052604160045260246000fd5b60008060006060848603121561107857600080fd5b833567ffffffffffffffff8082111561109057600080fd5b818601915086601f8301126110a457600080fd5b8135818111156110b6576110b661104d565b604051601f8201601f19908116603f011681019083821181831017156110de576110de61104d565b816040528281528960208487010111156110f757600080fd5b82602086016020830137600060208483010152809750505050505060208401359150604084013590509250925092565b60006020828403121561113957600080fd5b813561114481610e4e565b9392505050565b634e487b7160e01b600052601160045260246000fd5b808201808211156111745761117461114b565b92915050565b818103818111156111745761117461114b565b634e487b7160e01b600052601260045260246000fd5b6000826111b2576111b261118d565b500490565b6000826111c6576111c661118d565b500690565b6000600182016111dd576111dd61114b565b5060010190565b80820281158282048414176111745761117461114b565b600181811c9082168061120f57607f821691505b60208210810361122f57634e487b7160e01b600052602260045260246000fd5b50919050565b601f821115611281576000816000526020600020601f850160051c8101602086101561125e5750805b601f850160051c820191505b8181101561127d5782815560010161126a565b5050505b505050565b815167ffffffffffffffff8111156112a0576112a061104d565b6112b4816112ae84546111fb565b84611235565b602080601f8311600181146112e957600084156112d15750858301515b600019600386901b1c1916600185901b17855561127d565b600085815260208120601f198616915b82811015611318578886015182559484019460019091019084016112f9565b50858210156113365787850151600019600388901b60f8161c191681555b5050505050600190811b01905550565b6020815260006111446020830184610eac56fe9b779b17422d0df92223018b32b4d1fa46e071723d6817e2486d003becc55f00a264697066735822122090ff1b8fbbe67375ee93a8a601d4ae8bbf9b438e81629a6b27e5e5bb50c7479764736f6c63430008180033",
  "linkReferences": {},
  "deployedLinkReferences": {}
}