{
  "_format": "hh-sol-artifact-1",
  "contractName": "BookRental",
  "sourceName": "contracts/BookRental.sol",
  "abi": [
    {
      "inputs": [],
      "stateMutability": "nonpayable",
      "type": "constructor"
    },
    {
      "inputs": [],
      "name": "BookRental__AlreadyRegistered",
      "type": "error"
    },
    {
      "inputs": [],
      "name": "BookRental__CannotRentOwnItem",
      "type": "error"
    },
    {
      "inputs": [],
      "name": "BookRental__DepositTooLow",
      "type": "error"
    },
    {
      "inputs": [],
      "name": "BookRental__IPFSCIDRequired",
      "type": "error"
    },
    {
      "inputs": [],
      "name": "BookRental__InsufficientPayment",
      "type": "error"
    },
    {
      "inputs": [],
      "name": "BookRental__InvalidPrice",
      "type": "error"
    },
    {
      "inputs": [],
      "name": "BookRental__InvalidStatus",
      "type": "error"
    },
    {
      "inputs": [],
      "name": "BookRental__MaxRentalsReached",
      "type": "error"
    },
    {
      "inputs": [],
      "name": "BookRental__NoEligibleArbitrators",
      "type": "error"
    },
    {
      "inputs": [],
      "name": "BookRental__NotArbitrator",
      "type": "error"
    },
    {
      "inputs": [],
      "name": "BookRental__NotItemOwner",
      "type": "error"
    },
    {
      "inputs": [],
      "name": "BookRental__NotRegistered",
      "type": "error"
    },
    {
      "inputs": [],
      "name": "BookRental__NotRenter",
      "type": "error"
    },
    {
      "inputs": [],
      "name": "BookRental__TermsNotAccepted",
      "type": "error"
    },
    {
      "inputs": [],
      "name": "BookRental__Unauthorized",
      "type": "error"
    },
    {
      "inputs": [
        {
          "internalType": "address",
          "name": "owner",
          "type": "address"
        }
      ],
      "name": "OwnableInvalidOwner",
      "type": "error"
    },
    {
      "inputs": [
        {
          "internalType": "address",
          "name": "account",
          "type": "address"
        }
      ],
      "name": "OwnableUnauthorizedAccount",
      "type": "error"
    },
    {
      "inputs": [],
      "name": "ReentrancyGuardReentrantCall",
      "type": "error"
    },
    {
      "anonymous": false,
      "inputs": [
        {
          "indexed": true,
          "internalType": "address",
          "name": "arbitrator",
          "type": "address"
        }
      ],
      "name": "ArbitratorRegistered",
      "type": "event"
    },
    {
      "anonymous": false,
      "inputs": [
        {
          "indexed": true,
          "internalType": "address",
          "name": "arbitrator",
          "type": "address"
        }
      ],
      "name": "ArbitratorRemoved",
      "type": "event"
    },
    {
      "anonymous": false,
      "inputs": [
        {
          "indexed": true,
          "internalType": "uint256",
          "name": "itemId",
          "type": "uint256"
        },
        {
          "indexed": true,
          "internalType": "address",
          "name": "raisedBy",
          "type": "address"
        },
        {
          "indexed": true,
          "internalType": "address",
          "name": "chosenArbitrator",
          "type": "address"
        }
      ],
      "name": "DisputeRaised",
      "type": "event"
    },
    {
      "anonymous": false,
      "inputs": [
        {
          "indexed": true,
          "internalType": "uint256",
          "name": "itemId",
          "type": "uint256"
        },
        {
          "indexed": true,
          "internalType": "address",
          "name": "winner",
          "type": "address"
        }
      ],
      "name": "DisputeResolved",
      "type": "event"
    },
    {
      "anonymous": false,
      "inputs": [
        {
          "indexed": true,
          "internalType": "uint256",
          "name": "itemId",
          "type": "uint256"
        },
        {
          "indexed": true,
          "internalType": "address",
          "name": "owner",
          "type": "address"
        },
        {
          "indexed": false,
          "internalType": "string",
          "name": "ipfsCID",
          "type": "string"
        }
      ],
      "name": "ItemListed",
      "type": "event"
    },
    {
      "anonymous": false,
      "inputs": [
        {
          "indexed": true,
          "internalType": "uint256",
          "name": "itemId",
          "type": "uint256"
        },
        {
          "indexed": true,
          "internalType": "address",
          "name": "renter",
          "type": "address"
        }
      ],
      "name": "ItemRented",
      "type": "event"
    },
    {
      "anonymous": false,
      "inputs": [
        {
          "indexed": true,
          "internalType": "uint256",
          "name": "itemId",
          "type": "uint256"
        },
        {
          "indexed": true,
          "internalType": "address",
          "name": "renter",
          "type": "address"
        }
      ],
      "name": "ItemReturned",
      "type": "event"
    },
    {
      "anonymous": false,
      "inputs": [
        {
          "indexed": true,
          "internalType": "address",
          "name": "previousOwner",
          "type": "address"
        },
        {
          "indexed": true,
          "internalType": "address",
          "name": "newOwner",
          "type": "address"
        }
      ],
      "name": "OwnershipTransferred",
      "type": "event"
    },
    {
      "anonymous": false,
      "inputs": [
        {
          "indexed": true,
          "internalType": "uint256",
          "name": "itemId",
          "type": "uint256"
        },
        {
          "indexed": false,
          "internalType": "uint256",
          "name": "refundAmount",
          "type": "uint256"
        }
      ],
      "name": "ReturnConfirmed",
      "type": "event"
    },
    {
      "inputs": [],
      "name": "MAX_ACTIVE_RENTALS",
      "outputs": [
        {
          "internalType": "uint256",
          "name": "",
          "type": "uint256"
        }
      ],
      "stateMutability": "view",
      "type": "function"
    },
    {
      "inputs": [],
      "name": "STANDARD_RENTAL_PERIOD",
      "outputs": [
        {
          "internalType": "uint256",
          "name": "",
          "type": "uint256"
        }
      ],
      "stateMutability": "view",
      "type": "function"
    },
    {
      "inputs": [
        {
          "internalType": "address",
          "name": "",
          "type": "address"
        }
      ],
      "name": "activeRentals",
      "outputs": [
        {
          "internalType": "uint256",
          "name": "",
          "type": "uint256"
        }
      ],
      "stateMutability": "view",
      "type": "function"
    },
    {
      "inputs": [
        {
          "internalType": "uint256",
          "name": "",
          "type": "uint256"
        }
      ],
      "name": "arbitratorPool",
      "outputs": [
        {
          "internalType": "address",
          "name": "",
          "type": "address"
        }
      ],
      "stateMutability": "view",
      "type": "function"
    },
    {
      "inputs": [
        {
          "internalType": "uint256",
          "name": "",
          "type": "uint256"
        }
      ],
      "name": "assignedArbitrator",
      "outputs": [
        {
          "internalType": "address",
          "name": "",
          "type": "address"
        }
      ],
      "stateMutability": "view",
      "type": "function"
    },
    {
      "inputs": [
        {
          "internalType": "uint256",
          "name": "_itemId",
          "type": "uint256"
        }
      ],
      "name": "confirmReturn",
      "outputs": [],
      "stateMutability": "nonpayable",
      "type": "function"
    },
    {
      "inputs": [],
      "name": "getArbitratorCount",
      "outputs": [
        {
          "internalType": "uint256",
          "name": "",
          "type": "uint256"
        }
      ],
      "stateMutability": "view",
      "type": "function"
    },
    {
      "inputs": [],
      "name": "getArbitratorPool",
      "outputs": [
        {
          "internalType": "address[]",
          "name": "",
          "type": "address[]"
        }
      ],
      "stateMutability": "view",
      "type": "function"
    },
    {
      "inputs": [
        {
          "internalType": "uint256",
          "name": "_itemId",
          "type": "uint256"
        }
      ],
      "name": "getItem",
      "outputs": [
        {
          "components": [
            {
              "internalType": "uint256",
              "name": "itemId",
              "type": "uint256"
            },
            {
              "internalType": "address payable",
              "name": "owner",
              "type": "address"
            },
            {
              "internalType": "address payable",
              "name": "renter",
              "type": "address"
            },
            {
              "internalType": "uint256",
              "name": "pricePerDay",
              "type": "uint256"
            },
            {
              "internalType": "uint256",
              "name": "depositAmount",
              "type": "uint256"
            },
            {
              "internalType": "string",
              "name": "ipfsCID",
              "type": "string"
            },
            {
              "internalType": "enum BookRental.Status",
              "name": "status",
              "type": "uint8"
            },
            {
              "internalType": "uint256",
              "name": "rentedAt",
              "type": "uint256"
            },
            {
              "internalType": "uint256",
              "name": "returnedAt",
              "type": "uint256"
            },
            {
              "internalType": "uint256",
              "name": "disputeRaisedAt",
              "type": "uint256"
            }
          ],
          "internalType": "struct BookRental.Item",
          "name": "",
          "type": "tuple"
        }
      ],
      "stateMutability": "view",
      "type": "function"
    },
    {
      "inputs": [
        {
          "internalType": "address",
          "name": "",
          "type": "address"
        }
      ],
      "name": "isArbitrator",
      "outputs": [
        {
          "internalType": "bool",
          "name": "",
          "type": "bool"
        }
      ],
      "stateMutability": "view",
      "type": "function"
    },
    {
      "inputs": [],
      "name": "itemCounter",
      "outputs": [
        {
          "internalType": "uint256",
          "name": "",
          "type": "uint256"
        }
      ],
      "stateMutability": "view",
      "type": "function"
    },
    {
      "inputs": [
        {
          "internalType": "uint256",
          "name": "",
          "type": "uint256"
        }
      ],
      "name": "items",
      "outputs": [
        {
          "internalType": "uint256",
          "name": "itemId",
          "type": "uint256"
        },
        {
          "internalType": "address payable",
          "name": "owner",
          "type": "address"
        },
        {
          "internalType": "address payable",
          "name": "renter",
          "type": "address"
        },
        {
          "internalType": "uint256",
          "name": "pricePerDay",
          "type": "uint256"
        },
        {
          "internalType": "uint256",
          "name": "depositAmount",
          "type": "uint256"
        },
        {
          "internalType": "string",
          "name": "ipfsCID",
          "type": "string"
        },
        {
          "internalType": "enum BookRental.Status",
          "name": "status",
          "type": "uint8"
        },
        {
          "internalType": "uint256",
          "name": "rentedAt",
          "type": "uint256"
        },
        {
          "internalType": "uint256",
          "name": "returnedAt",
          "type": "uint256"
        },
        {
          "internalType": "uint256",
          "name": "disputeRaisedAt",
          "type": "uint256"
        }
      ],
      "stateMutability": "view",
      "type": "function"
    },
    {
      "inputs": [
        {
          "internalType": "string",
          "name": "_ipfsCID",
          "type": "string"
        },
        {
          "internalType": "uint256",
          "name": "_pricePerDay",
          "type": "uint256"
        },
        {
          "internalType": "uint256",
          "name": "_depositAmount",
          "type": "uint256"
        }
      ],
      "name": "listItem",
      "outputs": [
        {
          "internalType": "uint256",
          "name": "",
          "type": "uint256"
        }
      ],
      "stateMutability": "nonpayable",
      "type": "function"
    },
    {
      "inputs": [],
      "name": "owner",
      "outputs": [
        {
          "internalType": "address",
          "name": "",
          "type": "address"
        }
      ],
      "stateMutability": "view",
      "type": "function"
    },
    {
      "inputs": [
        {
          "internalType": "uint256",
          "name": "_itemId",
          "type": "uint256"
        }
      ],
      "name": "raiseDispute",
      "outputs": [],
      "stateMutability": "nonpayable",
      "type": "function"
    },
    {
      "inputs": [],
      "name": "registerAsArbitrator",
      "outputs": [],
      "stateMutability": "nonpayable",
      "type": "function"
    },
    {
      "inputs": [],
      "name": "renounceOwnership",
      "outputs": [],
      "stateMutability": "nonpayable",
      "type": "function"
    },
    {
      "inputs": [
        {
          "internalType": "uint256",
          "name": "_itemId",
          "type": "uint256"
        },
        {
          "internalType": "bool",
          "name": "_acceptedTerms",
          "type": "bool"
        }
      ],
      "name": "rentItem",
      "outputs": [],
      "stateMutability": "payable",
      "type": "function"
    },
    {
      "inputs": [
        {
          "internalType": "uint256",
          "name": "_itemId",
          "type": "uint256"
        },
        {
          "internalType": "address payable",
          "name": "_winner",
          "type": "address"
        }
      ],
      "name": "resolveDispute",
      "outputs": [],
      "stateMutability": "nonpayable",
      "type": "function"
    },
    {
      "inputs": [
        {
          "internalType": "uint256",
          "name": "_itemId",
          "type": "uint256"
        }
      ],
      "name": "returnItem",
      "outputs": [],
      "stateMutability": "nonpayable",
      "type": "function"
    },
    {
      "inputs": [
        {
          "internalType": "address",
          "name": "newOwner",
          "type": "address"
        }
      ],
      "name": "transferOwnership",
      "outputs": [],
      "stateMutability": "nonpayable",
      "type": "function"
    },
    {
      "inputs": [],
      "name": "unregisterAsArbitrator",
      "outputs": [],
      "stateMutability": "nonpayable",
      "type": "function"
    }
  ],
  "bytecode": "0x608060405234801561001057600080fd5b5060017f9b779b17422d0df92223018b32b4d1fa46e071723d6817e2486d003becc55f0055338061005b57604051631e4fbdf760e01b81526000600482015260240160405180910390fd5b610064816100c6565b50336000818152600560205260408120805460ff191660019081179091556004805491820181559091527f8a35acfbc15ff81a39ae7d344fd709f28e8600b4aa8c65c6b64bfe7fe36bd19b0180546001600160a01b0319169091179055610116565b600080546001600160a01b038381166001600160a01b0319831681178455604051919092169283917f8be0079c531659141344cd1fd0a4f28419497f9722a3daafe3b4186f6b6457e09190a35050565b611bfa806101256000396000f3fe6080604052600436106101355760003560e01c80638da5cb5b116100ab578063de2ad1ce1161006f578063de2ad1ce1461037b578063e86c245714610390578063ebc8c500146103b0578063f1766279146103c5578063f2fde38b146103e5578063f578470c1461040557600080fd5b80638da5cb5b146102b25780639f6bd2a9146102d0578063a1e4f4bc14610310578063a5c1674e14610325578063bfb231d21461034557600080fd5b80633fbb277c116100fd5780633fbb277c146101ed57806364a40f801461020f5780636d6d00ed14610226578063715018a61461023c5780637fe2372c1461025157806382520ee81461029f57600080fd5b80630e33599d1461013a5780631923c96f1461015c578063223ed1dd146101805780632e5df6e3146101a05780633129e773146101c0575b600080fd5b34801561014657600080fd5b5061015a6101553660046115f4565b610432565b005b34801561016857600080fd5b506004545b6040519081526020015b60405180910390f35b34801561018c57600080fd5b5061015a61019b366004611624565b6105bd565b3480156101ac57600080fd5b5061015a6101bb366004611624565b610677565b3480156101cc57600080fd5b506101e06101db366004611624565b610977565b60405161017791906116bb565b3480156101f957600080fd5b50610202610b15565b604051610177919061176a565b34801561021b57600080fd5b5061016d62093a8081565b34801561023257600080fd5b5061016d60015481565b34801561024857600080fd5b5061015a610b77565b34801561025d57600080fd5b5061028761026c366004611624565b6006602052600090815260409020546001600160a01b031681565b6040516001600160a01b039091168152602001610177565b61015a6102ad3660046117b7565b610b8b565b3480156102be57600080fd5b506000546001600160a01b0316610287565b3480156102dc57600080fd5b506103006102eb3660046117e1565b60056020526000908152604090205460ff1681565b6040519015158152602001610177565b34801561031c57600080fd5b5061015a610d2e565b34801561033157600080fd5b5061015a610340366004611624565b610e9f565b34801561035157600080fd5b50610365610360366004611624565b610fc8565b6040516101779a99989796959493929190611805565b34801561038757600080fd5b5061016d600581565b34801561039c57600080fd5b506102876103ab366004611624565b6110b2565b3480156103bc57600080fd5b5061015a6110dc565b3480156103d157600080fd5b5061016d6103e036600461188f565b61118f565b3480156103f157600080fd5b5061015a6104003660046117e1565b611341565b34801561041157600080fd5b5061016d6104203660046117e1565b60036020526000908152604090205481565b61043a611381565b6000828152600660205260409020546001600160a01b03163314610471576040516307d512d560e41b815260040160405180910390fd5b60008281526002602052604090206003600682015460ff16600481111561049a5761049a611683565b146104b8576040516337a2c47760e21b815260040160405180910390fd5b6000816003015482600401546104ce9190611969565b60028301546001600160a01b031660009081526003602052604081208054929350916104f990611982565b909155506006828101805460ff191690556002830180546001600160a01b0319908116909155600086815260209290925260408083208054909216909155516001600160a01b038516916108fc841502918491818181858888f19350505050158015610569573d6000803e3d6000fd5b506040516001600160a01b0384169085907ff77ceb5e091d2da041bc760667f9d5fe7a756949eaf29250ad0e60ca6f4c27d990600090a350506105b96001600080516020611ba583398151915255565b5050565b60008181526002602052604090206001600682015460ff1660048111156105e6576105e6611683565b14610604576040516337a2c47760e21b815260040160405180910390fd5b60028101546001600160a01b03163314610631576040516359b703af60e01b815260040160405180910390fd5b60068101805460ff19166002179055426008820155604051339083907fc3193e818cdb299f699a8ae99c460279d0de3b72ce9331e279a52515bb5aca9f90600090a35050565b61067f611381565b600081815260026020819052604090912090600682015460ff1660048111156106aa576106aa611683565b146106c8576040516337a2c47760e21b815260040160405180910390fd5b60018101546001600160a01b031633148015906106f5575060088101546106f2906202a300611969565b42105b15610713576040516363c9d95b60e01b815260040160405180910390fd5b6000816007015482600801546107299190611999565b9050600061073a62015180836119c2565b9050600061074b62015180846119d6565b111561075f578061075b816119ea565b9150505b8060000361076b575060015b6000600782111561077d57600761077f565b815b905060006007831161079257600061079d565b61079d600784611999565b905060008560030154826107b19190611a03565b6107bc906002611a03565b60038701546107cb9085611a03565b6107d59190611969565b90506000866003015482116107eb5760006107fa565b60038701546107fa9083611999565b9050600080886004015483106108295760009150886003015489600401546108229190611969565b905061084e565b8289600401546108399190611999565b915082896003015461084b9190611969565b90505b60068901805460ff191690556002890180546001600160a01b031981169091556001600160a01b03166000818152600360205260408120805490919061089390611982565b9091555081156108db5760018a01546040516001600160a01b039091169083156108fc029084906000818181858888f193505050501580156108d9573d6000803e3d6000fd5b505b8215610919576040516001600160a01b0382169084156108fc029085906000818181858888f19350505050158015610917573d6000803e3d6000fd5b505b8a7fb2c4110a20d27fd2a835295123d67e5f9434fe1cb3c3133245b909ea88a80c9d8460405161094b91815260200190565b60405180910390a2505050505050505050506109746001600080516020611ba583398151915255565b50565b6109cc604080516101408101825260008082526020820181905291810182905260608082018390526080820183905260a08201529060c082019081526020016000815260200160008152602001600081525090565b6000828152600260208181526040928390208351610140810185528154815260018201546001600160a01b03908116938201939093529281015490911692820192909252600382015460608201526004820154608082015260058201805491929160a084019190610a3c90611a1a565b80601f0160208091040260200160405190810160405280929190818152602001828054610a6890611a1a565b8015610ab55780601f10610a8a57610100808354040283529160200191610ab5565b820191906000526020600020905b815481529060010190602001808311610a9857829003601f168201915b5050509183525050600682015460209091019060ff166004811115610adc57610adc611683565b6004811115610aed57610aed611683565b8152600782015460208201526008820154604082015260099091015460609091015292915050565b60606004805480602002602001604051908101604052809291908181526020018280548015610b6d57602002820191906000526020600020905b81546001600160a01b03168152600190910190602001808311610b4f575b5050505050905090565b610b7f61139d565b610b8960006113ca565b565b610b93611381565b80610bb15760405163021be20960e41b815260040160405180910390fd5b600082815260026020526040812090600682015460ff166004811115610bd957610bd9611683565b14610bf7576040516337a2c47760e21b815260040160405180910390fd5b60018101546001600160a01b03163303610c2457604051633205115960e21b815260040160405180910390fd5b33600090815260036020526040902054600511610c545760405163699920ab60e11b815260040160405180910390fd5b600081600301548260040154610c6a9190611969565b905080341015610c8d57604051637589333160e11b815260040160405180910390fd5b60068201805460ff19166001179055600282018054336001600160a01b03199091168117909155426007840155600060088401819055600984018190559081526003602052604081208054909190610ce4906119ea565b90915550604051339085907f60a8ad5021d41afc35cad1dcad49a375a37f3d9c05c95bdf82d653ae99869a0c90600090a350506105b96001600080516020611ba583398151915255565b3360009081526005602052604090205460ff16610d5e5760405163054a697960e01b815260040160405180910390fd5b336000908152600560205260408120805460ff191690555b600454811015610e7157336001600160a01b031660048281548110610d9d57610d9d611a54565b6000918252602090912001546001600160a01b031603610e695760048054610dc790600190611999565b81548110610dd757610dd7611a54565b600091825260209091200154600480546001600160a01b039092169183908110610e0357610e03611a54565b9060005260206000200160006101000a8154816001600160a01b0302191690836001600160a01b031602179055506004805480610e4257610e42611a6a565b600082815260209020810160001990810180546001600160a01b0319169055019055610e71565b600101610d76565b5060405133907f715484adb5bc9cc29af577725dbf8486d0b82eca3ba79f65846e92ff38ef32b590600090a2565b600081815260026020819052604090912090600682015460ff166004811115610eca57610eca611683565b14610ee8576040516337a2c47760e21b815260040160405180910390fd5b60028101546001600160a01b03163314801590610f12575060018101546001600160a01b03163314155b15610f3057604051636e14c4dd60e11b815260040160405180910390fd5b60018101546002820154600091610f54916001600160a01b0391821691168561141a565b600084815260066020819052604080832080546001600160a01b0386166001600160a01b03199091168117909155918601805460ff191660031790554260098701555192935091339186917f32c3577ad32544a8c06c1b330ada404f03a4d405574e524dd6d86eeba5f21e739190a4505050565b600260208190526000918252604090912080546001820154928201546003830154600484015460058501805494966001600160a01b03908116969416949293919261101290611a1a565b80601f016020809104026020016040519081016040528092919081815260200182805461103e90611a1a565b801561108b5780601f106110605761010080835404028352916020019161108b565b820191906000526020600020905b81548152906001019060200180831161106e57829003601f168201915b50505050600683015460078401546008850154600990950154939460ff909216939092508a565b600481815481106110c257600080fd5b6000918252602090912001546001600160a01b0316905081565b3360009081526005602052604090205460ff161561110d57604051630e1e689f60e11b815260040160405180910390fd5b33600081815260056020526040808220805460ff1916600190811790915560048054918201815583527f8a35acfbc15ff81a39ae7d344fd709f28e8600b4aa8c65c6b64bfe7fe36bd19b0180546001600160a01b03191684179055517fc80bad7f86a895f590d6beaa663ccf7f0de84f1fd2a042b944433700879d61229190a2565b600083516000036111b357604051631a2da5df60e21b815260040160405180910390fd5b828210156111d4576040516307ae42cd60e41b815260040160405180910390fd5b6001600081546111e3906119ea565b909155506040805161014081018252600180548083523360208085019182526000858701818152606087018b8152608088018b815260a089018e815260c08a0185905260e08a018590526101008a018590526101208a018590529684526002948590529890922087518155935195840180546001600160a01b039788166001600160a01b03199182161790915590519284018054939096169216919091179093559151600383015592516004820155915190919060058201906112a69082611ad1565b5060c082015160068201805460ff191660018360048111156112ca576112ca611683565b021790555060e0820151816007015561010082015181600801556101208201518160090155905050336001600160a01b03166001547fe1c2078c29a65ada61730619230273d978ed51ccefc8b1f794ca5ef19d75b99b8660405161132e9190611b91565b60405180910390a3506001549392505050565b61134961139d565b6001600160a01b03811661137857604051631e4fbdf760e01b8152600060048201526024015b60405180910390fd5b610974816113ca565b6113896115af565b6002600080516020611ba583398151915255565b6000546001600160a01b03163314610b895760405163118cdaa760e01b815233600482015260240161136f565b600080546001600160a01b038381166001600160a01b0319831681178455604051919092169283917f8be0079c531659141344cd1fd0a4f28419497f9722a3daafe3b4186f6b6457e09190a35050565b600454600090818167ffffffffffffffff81111561143a5761143a611879565b604051908082528060200260200182016040528015611463578160200160208202803683370190505b5090506000805b838110156115085760006004828154811061148757611487611a54565b6000918252602090912001546001600160a01b039081169150891681148015906114c35750876001600160a01b0316816001600160a01b031614155b156114ff57808484815181106114db576114db611a54565b6001600160a01b03909216602092830291909101909101526114fc836119ea565b92505b5060010161146a565b508060000361152a57604051633e98ef2360e01b815260040160405180910390fd5b604080514460208201524291810191909152606080820187905233901b6bffffffffffffffffffffffff1916608082015260009082906094016040516020818303038152906040528051906020012060001c61158691906119d6565b905082818151811061159a5761159a611a54565b60200260200101519450505050509392505050565b600080516020611ba583398151915254600203610b8957604051633ee5aeb560e01b815260040160405180910390fd5b6001600160a01b038116811461097457600080fd5b6000806040838503121561160757600080fd5b823591506020830135611619816115df565b809150509250929050565b60006020828403121561163657600080fd5b5035919050565b6000815180845260005b8181101561166357602081850181015186830182015201611647565b506000602082860101526020601f19601f83011685010191505092915050565b634e487b7160e01b600052602160045260246000fd5b600581106116b757634e487b7160e01b600052602160045260246000fd5b9052565b6020815281516020820152600060208301516116e260408401826001600160a01b03169052565b5060408301516001600160a01b03811660608401525060608301516080830152608083015160a083015260a08301516101408060c085015261172861016085018361163d565b915060c085015161173c60e0860182611699565b5060e08501516101008581019190915285015161012080860191909152909401519390920192909252919050565b6020808252825182820181905260009190848201906040850190845b818110156117ab5783516001600160a01b031683529284019291840191600101611786565b50909695505050505050565b600080604083850312156117ca57600080fd5b823591506020830135801515811461161957600080fd5b6000602082840312156117f357600080fd5b81356117fe816115df565b9392505050565b8a81526001600160a01b038a8116602083015289166040820152606081018890526080810187905261014060a082018190526000906118468382018961163d565b91505061185660c0830187611699565b8460e083015283610100830152826101208301529b9a5050505050505050505050565b634e487b7160e01b600052604160045260246000fd5b6000806000606084860312156118a457600080fd5b833567ffffffffffffffff808211156118bc57600080fd5b818601915086601f8301126118d057600080fd5b8135818111156118e2576118e2611879565b604051601f8201601f19908116603f0116810190838211818310171561190a5761190a611879565b8160405282815289602084870101111561192357600080fd5b82602086016020830137600060208483010152809750505050505060208401359150604084013590509250925092565b634e487b7160e01b600052601160045260246000fd5b8082018082111561197c5761197c611953565b92915050565b60008161199157611991611953565b506000190190565b8181038181111561197c5761197c611953565b634e487b7160e01b600052601260045260246000fd5b6000826119d1576119d16119ac565b500490565b6000826119e5576119e56119ac565b500690565b6000600182016119fc576119fc611953565b5060010190565b808202811582820484141761197c5761197c611953565b600181811c90821680611a2e57607f821691505b602082108103611a4e57634e487b7160e01b600052602260045260246000fd5b50919050565b634e487b7160e01b600052603260045260246000fd5b634e487b7160e01b600052603160045260246000fd5b601f821115611acc576000816000526020600020601f850160051c81016020861015611aa95750805b601f850160051c820191505b81811015611ac857828155600101611ab5565b5050505b505050565b815167ffffffffffffffff811115611aeb57611aeb611879565b611aff81611af98454611a1a565b84611a80565b602080601f831160018114611b345760008415611b1c5750858301515b600019600386901b1c1916600185901b178555611ac8565b600085815260208120601f198616915b82811015611b6357888601518255948401946001909101908401611b44565b5085821015611b815787850151600019600388901b60f8161c191681555b5050505050600190811b01905550565b6020815260006117fe602083018461163d56fe9b779b17422d0df92223018b32b4d1fa46e071723d6817e2486d003becc55f00a264697066735822122033be1cd626176f474ddb4a0d7e03b86c42d18f18f69d3d8a9779c43dd688b95764736f6c63430008180033",
  "linkReferences": {},
  "deployedLinkReferences": {}
}