{
  "_format": "hh-sol-artifact-1",
  "contractName": "BookRental",
  "sourceName": "contracts/BookRental.sol",
  "abi": [
    {
      "inputs": [
        {
          "internalType": "address",
          "name": "_arbitrator",
          "type": "address"
        }
      ],
      "stateMutability": "nonpayable",
      "type": "constructor"
    },
    {
      "inputs": [],
      "name": "BookRental__CannotRentOwnItem",
      "type": "error"
    },
    {
      "inputs": [],
      "name": "BookRental__DepositTooLow",
      "type": "error"
    },
    {
      "inputs": [],
      "name": "BookRental__IPFSCIDRequired",
      "type": "error"
    },
    {
      "inputs": [],
      "name": "BookRental__InsufficientPayment",
      "type": "error"
    },
    {
      "inputs": [],
      "name": "BookRental__InvalidPrice",
      "type": "error"
    },
    {
      "inputs": [],
      "name": "BookRental__InvalidStatus",
      "type": "error"
    },
    {
      "inputs": [],
      "name": "BookRental__NotArbitrator",
      "type": "error"
    },
    {
      "inputs": [],
      "name": "BookRental__NotItemOwner",
      "type": "error"
    },
    {
      "inputs": [],
      "name": "BookRental__NotRenter",
      "type": "error"
    },
    {
      "inputs": [
        {
          "internalType": "address",
          "name": "owner",
          "type": "address"
        }
      ],
      "name": "OwnableInvalidOwner",
      "type": "error"
    },
    {
      "inputs": [
        {
          "internalType": "address",
          "name": "account",
          "type": "address"
        }
      ],
      "name": "OwnableUnauthorizedAccount",
      "type": "error"
    },
    {
      "inputs": [],
      "name": "ReentrancyGuardReentrantCall",
      "type": "error"
    },
    {
      "anonymous": false,
      "inputs": [
        {
          "indexed": true,
          "internalType": "uint256",
          "name": "itemId",
          "type": "uint256"
        },
        {
          "indexed": true,
          "internalType": "address",
          "name": "renter",
          "type": "address"
        }
      ],
      "name": "DisputeRaised",
      "type": "event"
    },
    {
      "anonymous": false,
      "inputs": [
        {
          "indexed": true,
          "internalType": "uint256",
          "name": "itemId",
          "type": "uint256"
        },
        {
          "indexed": true,
          "internalType": "address",
          "name": "winner",
          "type": "address"
        }
      ],
      "name": "DisputeResolved",
      "type": "event"
    },
    {
      "anonymous": false,
      "inputs": [
        {
          "indexed": true,
          "internalType": "uint256",
          "name": "itemId",
          "type": "uint256"
        },
        {
          "indexed": true,
          "internalType": "address",
          "name": "owner",
          "type": "address"
        },
        {
          "indexed": false,
          "internalType": "string",
          "name": "ipfsCID",
          "type": "string"
        }
      ],
      "name": "ItemListed",
      "type": "event"
    },
    {
      "anonymous": false,
      "inputs": [
        {
          "indexed": true,
          "internalType": "uint256",
          "name": "itemId",
          "type": "uint256"
        },
        {
          "indexed": true,
          "internalType": "address",
          "name": "renter",
          "type": "address"
        }
      ],
      "name": "ItemRented",
      "type": "event"
    },
    {
      "anonymous": false,
      "inputs": [
        {
          "indexed": true,
          "internalType": "uint256",
          "name": "itemId",
          "type": "uint256"
        },
        {
          "indexed": true,
          "internalType": "address",
          "name": "renter",
          "type": "address"
        }
      ],
      "name": "ItemReturned",
      "type": "event"
    },
    {
      "anonymous": false,
      "inputs": [
        {
          "indexed": true,
          "internalType": "address",
          "name": "previousOwner",
          "type": "address"
        },
        {
          "indexed": true,
          "internalType": "address",
          "name": "newOwner",
          "type": "address"
        }
      ],
      "name": "OwnershipTransferred",
      "type": "event"
    },
    {
      "anonymous": false,
      "inputs": [
        {
          "indexed": true,
          "internalType": "uint256",
          "name": "itemId",
          "type": "uint256"
        },
        {
          "indexed": false,
          "internalType": "uint256",
          "name": "refundAmount",
          "type": "uint256"
        }
      ],
      "name": "ReturnConfirmed",
      "type": "event"
    },
    {
      "inputs": [],
      "name": "arbitrator",
      "outputs": [
        {
          "internalType": "address",
          "name": "",
          "type": "address"
        }
      ],
      "stateMutability": "view",
      "type": "function"
    },
    {
      "inputs": [
        {
          "internalType": "uint256",
          "name": "_itemId",
          "type": "uint256"
        }
      ],
      "name": "confirmReturn",
      "outputs": [],
      "stateMutability": "nonpayable",
      "type": "function"
    },
    {
      "inputs": [
        {
          "internalType": "uint256",
          "name": "_itemId",
          "type": "uint256"
        }
      ],
      "name": "getItem",
      "outputs": [
        {
          "components": [
            {
              "internalType": "uint256",
              "name": "itemId",
              "type": "uint256"
            },
            {
              "internalType": "address payable",
              "name": "owner",
              "type": "address"
            },
            {
              "internalType": "address payable",
              "name": "renter",
              "type": "address"
            },
            {
              "internalType": "uint256",
              "name": "pricePerDay",
              "type": "uint256"
            },
            {
              "internalType": "uint256",
              "name": "depositAmount",
              "type": "uint256"
            },
            {
              "internalType": "string",
              "name": "ipfsCID",
              "type": "string"
            },
            {
              "internalType": "enum BookRental.Status",
              "name": "status",
              "type": "uint8"
            },
            {
              "internalType": "uint256",
              "name": "rentedAt",
              "type": "uint256"
            },
            {
              "internalType": "uint256",
              "name": "returnedAt",
              "type": "uint256"
            },
            {
              "internalType": "uint256",
              "name": "disputeRaisedAt",
              "type": "uint256"
            }
          ],
          "internalType": "struct BookRental.Item",
          "name": "",
          "type": "tuple"
        }
      ],
      "stateMutability": "view",
      "type": "function"
    },
    {
      "inputs": [
        {
          "internalType": "uint256",
          "name": "",
          "type": "uint256"
        }
      ],
      "name": "items",
      "outputs": [
        {
          "internalType": "uint256",
          "name": "itemId",
          "type": "uint256"
        },
        {
          "internalType": "address payable",
          "name": "owner",
          "type": "address"
        },
        {
          "internalType": "address payable",
          "name": "renter",
          "type": "address"
        },
        {
          "internalType": "uint256",
          "name": "pricePerDay",
          "type": "uint256"
        },
        {
          "internalType": "uint256",
          "name": "depositAmount",
          "type": "uint256"
        },
        {
          "internalType": "string",
          "name": "ipfsCID",
          "type": "string"
        },
        {
          "internalType": "enum BookRental.Status",
          "name": "status",
          "type": "uint8"
        },
        {
          "internalType": "uint256",
          "name": "rentedAt",
          "type": "uint256"
        },
        {
          "internalType": "uint256",
          "name": "returnedAt",
          "type": "uint256"
        },
        {
          "internalType": "uint256",
          "name": "disputeRaisedAt",
          "type": "uint256"
        }
      ],
      "stateMutability": "view",
      "type": "function"
    },
    {
      "inputs": [
        {
          "internalType": "string",
          "name": "_ipfsCID",
          "type": "string"
        },
        {
          "internalType": "uint256",
          "name": "_pricePerDay",
          "type": "uint256"
        },
        {
          "internalType": "uint256",
          "name": "_depositAmount",
          "type": "uint256"
        }
      ],
      "name": "listItem",
      "outputs": [
        {
          "internalType": "uint256",
          "name": "",
          "type": "uint256"
        }
      ],
      "stateMutability": "nonpayable",
      "type": "function"
    },
    {
      "inputs": [],
      "name": "owner",
      "outputs": [
        {
          "internalType": "address",
          "name": "",
          "type": "address"
        }
      ],
      "stateMutability": "view",
      "type": "function"
    },
    {
      "inputs": [
        {
          "internalType": "uint256",
          "name": "_itemId",
          "type": "uint256"
        }
      ],
      "name": "raiseDispute",
      "outputs": [],
      "stateMutability": "nonpayable",
      "type": "function"
    },
    {
      "inputs": [],
      "name": "renounceOwnership",
      "outputs": [],
      "stateMutability": "nonpayable",
      "type": "function"
    },
    {
      "inputs": [
        {
          "internalType": "uint256",
          "name": "_itemId",
          "type": "uint256"
        }
      ],
      "name": "rentItem",
      "outputs": [],
      "stateMutability": "payable",
      "type": "function"
    },
    {
      "inputs": [
        {
          "internalType": "uint256",
          "name": "_itemId",
          "type": "uint256"
        },
        {
          "internalType": "address payable",
          "name": "_winner",
          "type": "address"
        }
      ],
      "name": "resolveDispute",
      "outputs": [],
      "stateMutability": "nonpayable",
      "type": "function"
    },
    {
      "inputs": [
        {
          "internalType": "uint256",
          "name": "_itemId",
          "type": "uint256"
        }
      ],
      "name": "returnItem",
      "outputs": [],
      "stateMutability": "nonpayable",
      "type": "function"
    },
    {
      "inputs": [
        {
          "internalType": "address",
          "name": "newOwner",
          "type": "address"
        }
      ],
      "name": "transferOwnership",
      "outputs": [],
      "stateMutability": "nonpayable",
      "type": "function"
    }
  ],
  "bytecode": "0x608060405234801561001057600080fd5b506040516114cb3803806114cb83398101604081905261002f916100f8565b60017f9b779b17422d0df92223018b32b4d1fa46e071723d6817e2486d003becc55f0055338061007957604051631e4fbdf760e01b81526000600482015260240160405180910390fd5b610082816100a8565b50600280546001600160a01b0319166001600160a01b0392909216919091179055610128565b600080546001600160a01b038381166001600160a01b0319831681178455604051919092169283917f8be0079c531659141344cd1fd0a4f28419497f9722a3daafe3b4186f6b6457e09190a35050565b60006020828403121561010a57600080fd5b81516001600160a01b038116811461012157600080fd5b9392505050565b611394806101376000396000f3fe6080604052600436106100a75760003560e01c80638da5cb5b116100645780638da5cb5b14610191578063a5c1674e146101af578063bfb231d2146101cf578063d78d385214610205578063f176627914610218578063f2fde38b1461024657600080fd5b80630e33599d146100ac578063223ed1dd146100ce5780632e5df6e3146100ee5780633129e7731461010e5780636cc6cde114610144578063715018a61461017c575b600080fd5b3480156100b857600080fd5b506100cc6100c7366004610e48565b610266565b005b3480156100da57600080fd5b506100cc6100e9366004610e78565b6103a3565b3480156100fa57600080fd5b506100cc610109366004610e78565b61045d565b34801561011a57600080fd5b5061012e610129366004610e78565b6106c7565b60405161013b9190610f0f565b60405180910390f35b34801561015057600080fd5b50600254610164906001600160a01b031681565b6040516001600160a01b03909116815260200161013b565b34801561018857600080fd5b506100cc610865565b34801561019d57600080fd5b506000546001600160a01b0316610164565b3480156101bb57600080fd5b506100cc6101ca366004610e78565b610879565b3480156101db57600080fd5b506101ef6101ea366004610e78565b610933565b60405161013b9a99989796959493929190610fbe565b6100cc610213366004610e78565b610a1d565b34801561022457600080fd5b50610238610233366004611048565b610b4f565b60405190815260200161013b565b34801561025257600080fd5b506100cc61026136600461110c565b610d2a565b6002546001600160a01b03163314610291576040516307d512d560e41b815260040160405180910390fd5b610299610d6a565b600082815260036020819052604090912090600682015460ff1660048111156102c4576102c4610ed7565b146102e2576040516337a2c47760e21b815260040160405180910390fd5b6000816003015482600401546102f89190611146565b60068301805460ff191690556002830180546001600160a01b03191690556040519091506001600160a01b038416906108fc8315029083906000818181858888f1935050505015801561034f573d6000803e3d6000fd5b506040516001600160a01b0384169085907ff77ceb5e091d2da041bc760667f9d5fe7a756949eaf29250ad0e60ca6f4c27d990600090a3505061039f600160008051602061133f83398151915255565b5050565b60008181526003602052604090206001600682015460ff1660048111156103cc576103cc610ed7565b146103ea576040516337a2c47760e21b815260040160405180910390fd5b60028101546001600160a01b03163314610417576040516359b703af60e01b815260040160405180910390fd5b60068101805460ff19166002179055426008820155604051339083907fc3193e818cdb299f699a8ae99c460279d0de3b72ce9331e279a52515bb5aca9f90600090a35050565b610465610d6a565b60008181526003602052604090206002600682015460ff16600481111561048e5761048e610ed7565b146104ac576040516337a2c47760e21b815260040160405180910390fd5b60018101546001600160a01b031633148015906104d9575060088101546104d6906202a300611146565b42105b156104f7576040516363c9d95b60e01b815260040160405180910390fd5b60008160070154826008015461050d919061115f565b9050600061051e6201518083611188565b9050600061052f620151808461119c565b1115610543578061053f816111b0565b9150505b8060000361054f575060015b60006001821161056057600061056b565b61056b60018361115f565b9050600084600301548261057f91906111c9565b9050600080866004015483106105ae5760009150866003015487600401546105a79190611146565b90506105d3565b8287600401546105be919061115f565b91508287600301546105d09190611146565b90505b60068701805460ff191690556002870180546001600160a01b0319811690915560018801546040516001600160a01b03928316929091169083156108fc029084906000818181858888f19350505050158015610633573d6000803e3d6000fd5b506040516001600160a01b0382169084156108fc029085906000818181858888f1935050505015801561066a573d6000803e3d6000fd5b50887fb2c4110a20d27fd2a835295123d67e5f9434fe1cb3c3133245b909ea88a80c9d8460405161069d91815260200190565b60405180910390a250505050505050506106c4600160008051602061133f83398151915255565b50565b61071c604080516101408101825260008082526020820181905291810182905260608082018390526080820183905260a08201529060c082019081526020016000815260200160008152602001600081525090565b6000828152600360208181526040928390208351610140810185528154815260018201546001600160a01b03908116938201939093526002820154909216938201939093529082015460608201526004820154608082015260058201805491929160a08401919061078c906111e0565b80601f01602080910402602001604051908101604052809291908181526020018280546107b8906111e0565b80156108055780601f106107da57610100808354040283529160200191610805565b820191906000526020600020905b8154815290600101906020018083116107e857829003601f168201915b5050509183525050600682015460209091019060ff16600481111561082c5761082c610ed7565b600481111561083d5761083d610ed7565b8152600782015460208201526008820154604082015260099091015460609091015292915050565b61086d610d86565b6108776000610db3565b565b60008181526003602052604090206002600682015460ff1660048111156108a2576108a2610ed7565b146108c0576040516337a2c47760e21b815260040160405180910390fd5b60028101546001600160a01b031633146108ed576040516359b703af60e01b815260040160405180910390fd5b60068101805460ff19166003179055426009820155604051339083907f84a477df8a28a4276ca6dee4458a06c3015f30c477d9c949ede4e13ff8a552b490600090a35050565b600360208190526000918252604090912080546001820154600283015493830154600484015460058501805494966001600160a01b03948516969416949293919261097d906111e0565b80601f01602080910402602001604051908101604052809291908181526020018280546109a9906111e0565b80156109f65780601f106109cb576101008083540402835291602001916109f6565b820191906000526020600020905b8154815290600101906020018083116109d957829003601f168201915b50505050600683015460078401546008850154600990950154939460ff909216939092508a565b610a25610d6a565b600081815260036020526040812090600682015460ff166004811115610a4d57610a4d610ed7565b14610a6b576040516337a2c47760e21b815260040160405180910390fd5b60018101546001600160a01b03163303610a9857604051633205115960e21b815260040160405180910390fd5b600081600301548260040154610aae9190611146565b905080341015610ad157604051637589333160e11b815260040160405180910390fd5b60068201805460ff19166001179055600282018054336001600160a01b031990911681179091554260078401556000600884018190556009840181905560405185917f60a8ad5021d41afc35cad1dcad49a375a37f3d9c05c95bdf82d653ae99869a0c91a350506106c4600160008051602061133f83398151915255565b6000610b59610d86565b8351600003610b7b57604051631a2da5df60e21b815260040160405180910390fd5b82600003610b9c57604051636be8f68360e01b815260040160405180910390fd5b82821015610bbd576040516307ae42cd60e41b815260040160405180910390fd5b600160008154610bcc906111b0565b909155506040805161014081018252600180548083523360208085019182526000858701818152606087018b8152608088018b815260a089018e815260c08a0185905260e08a018590526101008a018590526101208a018590529684526003948590529890922087518155935195840180546001600160a01b039788166001600160a01b0319918216179091559051600285018054919097169116179094559251928101929092559251600482015591519091906005820190610c8f908261126b565b5060c082015160068201805460ff19166001836004811115610cb357610cb3610ed7565b021790555060e0820151816007015561010082015181600801556101208201518160090155905050336001600160a01b03166001547fe1c2078c29a65ada61730619230273d978ed51ccefc8b1f794ca5ef19d75b99b86604051610d17919061132b565b60405180910390a3506001549392505050565b610d32610d86565b6001600160a01b038116610d6157604051631e4fbdf760e01b8152600060048201526024015b60405180910390fd5b6106c481610db3565b610d72610e03565b600260008051602061133f83398151915255565b6000546001600160a01b031633146108775760405163118cdaa760e01b8152336004820152602401610d58565b600080546001600160a01b038381166001600160a01b0319831681178455604051919092169283917f8be0079c531659141344cd1fd0a4f28419497f9722a3daafe3b4186f6b6457e09190a35050565b60008051602061133f8339815191525460020361087757604051633ee5aeb560e01b815260040160405180910390fd5b6001600160a01b03811681146106c457600080fd5b60008060408385031215610e5b57600080fd5b823591506020830135610e6d81610e33565b809150509250929050565b600060208284031215610e8a57600080fd5b5035919050565b6000815180845260005b81811015610eb757602081850181015186830182015201610e9b565b506000602082860101526020601f19601f83011685010191505092915050565b634e487b7160e01b600052602160045260246000fd5b60058110610f0b57634e487b7160e01b600052602160045260246000fd5b9052565b602081528151602082015260006020830151610f3660408401826001600160a01b03169052565b5060408301516001600160a01b03811660608401525060608301516080830152608083015160a083015260a08301516101408060c0850152610f7c610160850183610e91565b915060c0850151610f9060e0860182610eed565b5060e08501516101008581019190915285015161012080860191909152909401519390920192909252919050565b8a81526001600160a01b038a8116602083015289166040820152606081018890526080810187905261014060a08201819052600090610fff83820189610e91565b91505061100f60c0830187610eed565b8460e083015283610100830152826101208301529b9a5050505050505050505050565b634e487b7160e01b600052604160045260246000fd5b60008060006060848603121561105d57600080fd5b833567ffffffffffffffff8082111561107557600080fd5b818601915086601f83011261108957600080fd5b81358181111561109b5761109b611032565b604051601f8201601f19908116603f011681019083821181831017156110c3576110c3611032565b816040528281528960208487010111156110dc57600080fd5b82602086016020830137600060208483010152809750505050505060208401359150604084013590509250925092565b60006020828403121561111e57600080fd5b813561112981610e33565b9392505050565b634e487b7160e01b600052601160045260246000fd5b8082018082111561115957611159611130565b92915050565b8181038181111561115957611159611130565b634e487b7160e01b600052601260045260246000fd5b60008261119757611197611172565b500490565b6000826111ab576111ab611172565b500690565b6000600182016111c2576111c2611130565b5060010190565b808202811582820484141761115957611159611130565b600181811c908216806111f457607f821691505b60208210810361121457634e487b7160e01b600052602260045260246000fd5b50919050565b601f821115611266576000816000526020600020601f850160051c810160208610156112435750805b601f850160051c820191505b818110156112625782815560010161124f565b5050505b505050565b815167ffffffffffffffff81111561128557611285611032565b6112998161129384546111e0565b8461121a565b602080601f8311600181146112ce57600084156112b65750858301515b600019600386901b1c1916600185901b178555611262565b600085815260208120601f198616915b828110156112fd578886015182559484019460019091019084016112de565b508582101561131b5787850151600019600388901b60f8161c191681555b5050505050600190811b01905550565b6020815260006111296020830184610e9156fe9b779b17422d0df92223018b32b4d1fa46e071723d6817e2486d003becc55f00a26469706673582212206cda11b96789f7d926359ea0255b002b31ff6686d853d86f70faf9dd1804d8c164736f6c63430008180033",
  "linkReferences": {},
  "deployedLinkReferences": {}
}